:100000000C946D050C948A050C948A050C94A32716
:100010000C948A050C948A050C948A050C948A0524
:100020000C948A050C948A050C94801C0C94C21BB9
:100030000C94A6220C948A050C948A050C948A05CB
:100040000C948A050C948A050C948A050C948A05F4
:100050000C948A050C94681D0C948A050C948A05EE
:100060000C948A050C948A050C948A050C948A05D4
:100070000C948A050C948A050C948A050C948A05C4
:100080000C948A050C948A050C948A050C948A05B4
:100090000C948A050C948A050C948A050C948A05A4
:1000A0000C948A050C948A050C948A0515081B0883
:1000B00009080F08210827082D088A08FE08920859
:1000C0005C086008960863089908A4086E08F4089C
:1000D0007208A8087608AC08D6087A08B008E008C4
:1000E0008008B608C00867089D086A08A008850847
:1000F000BB08CC08EC08EE0858088E080709D70999
:10010000D709090A090A890AA70AD00BD00BAC0A39
:100110003A0B4B0B4B0BE119081AA01B081AA01B3A
:10012000501A731AA01B621B751B00DA0281FFD9DB
:10013000F1DB20A4A62EAF00A0C0D30000A1C8D33D
:100140000000AED580A81F408D1420004350534CB2
:100150004B000A0A00556E646566004C6F77657245
:1001600000526169736500426173650A004C415930
:100170004552000A0A004D6F640A00436C6D6B0023
:1001800051777274000A0A00808182838485868791
:1001900088898A8B8C8D8E8F9091929394A0A1A246
:1001A000A3A4A5A6A7A8A9AAABACADAEAFB0B1B2A7
:1001B000B3B4C0C1C2C3C4C5C6C7C8C9CACBCCCDFD
:1001C000CECFD0D1D2D3D40000001E001F0020001B
:1001D00021002200290014001A0008001500170051
:1001E0002B0004001600070009000A00E1001D00B2
:1001F0001B00060019000500E300E200E0002252A7
:100200002800A80035002700260025002400230030
:100210003400130012000C0018001C002A003300E8
:100220000F000E000D000B00E5003800370036000F
:10023000100011000000E600E40023522C00000032
:1002400000001E001F0020002100220029001400D1
:100250001A00090013000A002B0004001500160004
:1002600017000700E1001D001B0006001900050033
:10027000E300E200E00022522800A8003500270039
:100280002600250024002300340033001C00180041
:100290000F000D002A0012000C00080011000B00D6
:1002A000E50038003700360010000E000000E600C0
:1002B000E40023522C0000000000000000000000B9
:1002C000000000000000000000000000000000002E
:1002D00001000000000000002602270201002D009E
:1002E000000000002F0230020100010001000100A7
:1002F00001000100000000000000000000000000FC
:1003000000000000000000000000000000000000ED
:1003100000000000000000000100000000000000DC
:1003200030002F00010001000100245201000100F3
:1003300000003A003B003C003D003E000100000090
:10034000000065000000000039000000000000000F
:100350000000010001001D011B0106011901000040
:10036000010001000100245201000100440043008B
:100370004200410040003F004500000000005200E4
:1003800000004B004C0000004F00510050004E0098
:10039000010000004D0000004A00000001000100C3
:1003A0000100010001000100000000000000000049
:1003B00000000000007C0000405241521D7000000F
:1003C000000000001D7000000000000000000000A0
:1003D0000000000000000000010001000100010019
:1003E000010000000000000000000000000000000C
:1003F00000000000000000000000000000000000FD
:10040000A900A800AA00000000000000AB00AE0098
:10041000AC0000000100010001000100010000002B
:1004200005010902A10185020901A10005091901BF
:10043000290815002501950875018102050109307B
:1004400009311581257F95027508810609381581C6
:10045000257F950175088106050C0A38021581254E
:100460007F950175088106C0C005010980A101853D
:100470000319012AB700150126B7009501751081EF
:1004800000C0050C0901A101850419012AA002156B
:100490000126A002950175108100C005010906A181
:1004A000018506050719E029E7150025019508755E
:1004B0000181020507190029EF1500250195F07546
:1004C000018102050819012905950575019102951B
:1004D0000175039101C005010906A101050719E095
:1004E00029E7150025019508750181029501750818
:1004F00081010507190029FF150026FF00950675E3
:1005000008810005081901290515002501950575C3
:10051000019102950175039101C009023B0002019E
:1005200000A0FA09040000010301010009211101E2
:1005300000012244000705810308000109040100AD
:10054000010300000009211101000122B600070586
:100550008203200001120100020000000832FC8723
:10056000020100010200010C0353006F0066006CE1
:1005700000650000001A034A006F00730065006602
:10058000004100640061006D00630069006B0000C1
:10059000000403090407087F0807003E5B4F5B3E29
:1005A000003E6B4F6B3E001C3E7C3E1C00183C7EA8
:1005B0003C18001C577D571C001C5E7F5E1C000011
:1005C000183C180000FFE7C3E7FF000018241800DC
:1005D00000FFE7DBE7FF0030483A060E00262979E6
:1005E000292600407F05050700407F05253F005A6A
:1005F0003CE73C5A007F3E1C1C0800081C1C3E7F48
:100600000014227F2214005F5F005F5F0006097FF5
:10061000017F00006689956A0060606060600094F8
:10062000A2FFA2940008047E04080010207E20107F
:100630000008082A1C0800081C2A0808001E1010C0
:100640001010000C1E0C1E0C0030383E3830000616
:100650000E3E0E060000000000000000005F0000DB
:1006600000000700070000147F147F1400242A7F75
:100670002A120023130864620036495620500000F5
:100680000807030000001C224100000041221C005A
:10069000002A1C7F1C2A0008083E08080000807001
:1006A0003000000808080808000000606000002012
:1006B00010080402003E5149453E0000427F4000C0
:1006C000007249494946002141494D33001814122E
:1006D0007F10002745454539003C4A4949310041D2
:1006E0002111090700364949493600464949291E62
:1006F0000000001400000000403400000000081456
:1007000022410014141414140000412214080002A1
:1007100001590906003E415D594E007C1211127CC0
:10072000007F49494936003E41414122007F414115
:10073000413E007F49494941007F09090901003EC6
:1007400041415173007F0808087F0000417F41004C
:10075000002040413F01007F08142241007F4040BB
:100760004040007F021C027F007F0408107F003E93
:100770004141413E007F09090906003E4151215E89
:10078000007F091929460026494949320003017FA3
:100790000103003F4040403F001F2040201F003F1A
:1007A0004038403F006314081463000304780403D6
:1007B000006159494D4300007F4141410002040856
:1007C000102000004141417F00040201020400406A
:1007D0004040404000000307080000205454784087
:1007E000007F2844443800384444442800384444B6
:1007F000287F0038545454180000087E090200185D
:10080000A4A49C78007F080404780000447D400084
:10081000002040403D00007F102844000000417F40
:100820004000007C04780478007C080404780038D8
:100830004444443800FC182424180018242418FCCC
:10084000007C080404080048545454240004043F65
:100850004424003C4040207C001C2040201C003CE4
:100860004030403C004428102844004C9090907C3C
:10087000004464544C4400000836410000000077F6
:100880000000000041360800000201020402003CA2
:100890002623263C00000000000000404040F0F805
:1008A000F8FF38FFF8F83FF8F8FF38FFF8F8F040A5
:1008B000404000000000000080C0C0C0800000C0B8
:1008C000C08000000080C0C000C0C0000080C0C068
:1008D0000000000000C0C0C0C0C000C0C0000000D8
:1008E0000000000000000000000000000000000008
:1008F00000000000000000000000000000000000F8
:1009000000000000000000000000000000000000E7
:1009100000000000C0F0F8FC3E1E06010000007F51
:100920004141417F007F4141417F000080C0E07E26
:100930005B4F5BFEC00000C000DCD7DEDEDED7DC34
:1009400000C00000000000000000000000000000E7
:100950000000000000000000000000494949FFFFBE
:10096000FFFFE0DFBFBF00BFBFDFE0FFFFFFFF49CA
:10097000494900000000001F3F6060E0BF1F007F8A
:100980007F071E381E077F7F007F7F0E1F3B716031
:1009900000000000007F7F0C0C0C007E7E007F7E3C
:1009A0000303007F7E03037E7E03037F7E000F3EF2
:1009B000703C063C703E0F00327B49493F7E007F11
:1009C0007E0303001E3F69696F26000000000000DF
:1009D00000000000030F1F3F3C7870600000007FA4
:1009E0004141417F007F4141417F00307B7F783032
:1009F000202030787F3B0003000F7F0F0F0F7F0F09
:100A000000030000000000000000000000000000E3
:100A10000000000000000000000000010101070FBD
:100A20000F7F0F7F0F0F7E0F0F7F0F7F0F0F0701BD
:100A300001010000000000000000000001010000B2
:100A400000000000000000000000000000000000A6
:100A50000000000000000000000000000000000096
:100A60000000000000000000000000000000000086
:100A70000000000000000000000000000000000076
:100A80000000000000000000000000000000000066
:100A90000000000000000000000000000000000056
:100AA0000000000000000000000000000000000046
:100AB0000000000000000000000000000000000036
:100AC0000000000000000000000000000000000026
:100AD000000000000000AF00AE0011241FBECFEFE9
:100AE000DAE0DEBFCDBF11E0A0E0B1E0E0E5F3E584
:100AF00002C005900D92AC3AB107D9F725E0ACEAF7
:100B0000B1E001C01D92A434B207E1F70E942F0C9E
:100B10000C94A6290C94000090913205662309F4E8
:100B200070C091110CC090913305911108C0909143
:100B30003505911104C090913405992331F098E066
:100B40009093290591E090932A058D3C21F40E9411
:100B5000B123819504C08E3C29F40E94B123809377
:100B60003305C3C08F3C21F40E94B123819504C09A
:100B7000803D29F40E94B12380933205B6C0893D9F
:100B800019F40E948F2305C08A3D31F40E948F23FF
:100B9000819580933405A9C08B3D21F40E948F2359
:100BA000819504C08C3D29F40E948F2380933505E4
:100BB0009CC09FE2980F983078F421E030E0A901C2
:100BC00002C0440F551F9A95E2F7CA019091310572
:100BD000892B8093310589C08D3D21F480912B05AF
:100BE00081600CC08E3D21F480912B05826006C08F
:100BF0008F3D09F07AC080912B05846080932B058E
:100C000074C08D3C39F49091330597FF33C0109236
:100C1000330557C08E3C29F4909133051916BCF367
:100C200029C08F3C29F497FF25C01092320549C096
:100C3000803D19F41916CCF31DC090913405893DFF
:100C400029F41916BCF4109234053BC08A3D19F4FE
:100C500097FF10C0F8CF8B3D39F49091350597FF81
:100C600009C0109235052DC08C3D21F490913505B9
:100C70001916BCF39FE2980F983080F421E030E021
:100C8000A90102C0440F551F9A95E2F7CA01809549
:100C90009091310589238093310513C08D3D21F456
:100CA00080912B058E7F0BC08E3D21F480912B050A
:100CB0008D7F05C08F3D29F480912B058B7F80931C
:100CC0002B0580913205811106C080913305811179
:100CD00002C01092290580913405811106C08091CF
:100CE0003505811102C010922A050E9471250895D0
:100CF000A6E0B0E0EEE7F6E00C94E72849835A83DB
:100D000049815A81992361F0222351F0CA010E943E
:100D1000B71E182F682F89819A810E94D52004C0A0
:100D2000CA010E94A220182F69817A81812F0E9416
:100D3000E6142696E3E00C9403290E9463212FEF2A
:100D400084E39CE0215080409040E1F700C0000027
:100D50009AE088E10FB6F894A895809360000FBEE2
:100D600090936000FFCF882381F19CEF980F913A18
:100D700018F40E94CF220DC090E2980F983060F4D2
:100D8000877091E001C0990F8A95EAF7892F0E9438
:100D9000FB1D0E94021E08959BE5980F933028F4D6
:100DA00080E090E00E945923089598E5980F9B31C8
:100DB00028F480E090E00E943423089593E3980F94
:100DC000933118F460E00E948C050895CF93882336
:100DD00009F46EC0C82F8CEF8C0F813AA0F580917A
:100DE0004A018823E1F08091410587FF18C0EC2F6C
:100DF000E695E695E695F0E0E051FD4F8281282FDB
:100E000030E04C2F477081E090E002C0880F991FBE
:100E10004A95E2F782239323892B61F410C0EAEE0E
:100E2000F2E080EF92E02191C21721F08E179F0728
:100E3000D1F705C08C2F0E94CF220E94021E8C2F5A
:100E40000E94FD2210C080E28C0F883078F4C770B9
:100E500081E090E001C0880FCA95EAF79091E50221
:100E6000892B8093E5020E94021E22C0EBE5EC0F65
:100E7000E33040F4F0E0E059FE4F808190E00E94C2
:100E8000592316C0E8E5EC0FEB3150F4F0E0EE0F1B
:100E9000FF1FED58FE4F808191810E94342308C0CE
:100EA00083E38C0F833120F461E08C2F0E948C054A
:100EB000CF910895ABE1B0E0E0E6F7E00C94E628CE
:100EC0004E8B5F8B688F798F8A8F9B8F192F911133
:100ED0001092BC02DE011F9687E0FD0111928A95F7
:100EE000E9F786E0FE01769601900D928A95E1F78A
:100EF0000A8D002341F021E04F85588969897A895C
:100F0000C8010E9478060B8B1C8B87E0FE013F9680
:100F1000DE01189601900D928A95E1F7CE010896B0
:100F20000E941B1F81112CC087E0FE013896DE0154
:100F3000119601900D928A95E1F76C85662301F177
:100F40002091800230E0C901019687709927409175
:100F5000B90250E08417950761F16D8397E0929F85
:100F6000D001939FB00D1124AF57BD4FFE013196B4
:100F700001900D929A95E1F7809380020E94541E91
:100F800017E08091B902909180028917F9F0189FBB
:100F9000C00111248F579D4F0E941B1F8823B1F061
:100FA0008091B90290E00196877099278093B902E9
:100FB000E8CF0E946321109280021092B902E9E703
:100FC000F2E087E0DF011D928A95E9F76B96E4E095
:100FD0000C940229A0E0B0E0E0EFF7E00C94E128E7
:100FE000FC018481882309F40FC47F0121E0408142
:100FF00051816281738195810E947806EC01FC0128
:10100000E851FC47E730F10588F5EA5AFF4F0C94A8
:101010008A2906E221EE41EE6AE17CE723C007E27D
:1010200025EE45EE6BE17CE71DC006E221EE40EEC9
:1010300068E17CE717C007E225EE44EE69E17CE752
:1010400011C006E221EE42EE6CE17CE70BC007E244
:1010500025EE46EE6DE17CE705C008E221E045EEB5
:101060006EE17CE7C7010E94ED24FAC0F70185819B
:10107000882309F443C110923805CE019057839715
:1010800008F0DBC084E090E00E94202990934205A4
:1010900080934105FE01E150F047E232F10520F472
:1010A000E35AFF4F0C948A29809141058160ACC0BE
:1010B000809142058860B4C0809141058260A4C0DF
:1010C0008091410520C08091410588609DC080913C
:1010D00042051EC0809142058260A2C080914105F8
:1010E000806192C08091410580628EC080914105EF
:1010F00080648AC00E94632180914105806884C019
:1011000080914105886084607FC080914205826043
:10111000816086C0809141058E7F76C080914205B6
:10112000877F7EC0809141058D7F6EC08091410593
:1011300020C080914105877F67C0809142051EC015
:10114000809142058D7F6CC0809141058F7E5CC08F
:10115000809141058F7D58C0809141058F7B54C09F
:101160000E946321809141058F774EC08091410597
:10117000877F8B7F49C0809142058D7F8E7F50C0D5
:101180008091410582FB222720F991E0922790FB74
:1011900082F990FB83F938C080914205982F909591
:1011A00091708E7F892B90FB81F93AC08091410527
:1011B00086FB222720F991E0922790FB86F924C034
:1011C0000E9463218091410587FB222720F991E04D
:1011D000922790FB87F918C061E001C060E08EE0C3
:1011E00090E00E9436291EC08091410584FB222791
:1011F00020F991E0922790FB84F906C08091410587
:10120000982F909590FB80F9809341050BC08091B9
:10121000420583FB222720F991E0922790FB83F976
:1012200080934205609141057091420584E090E011
:101230000E9454290E94632113C0C631FCE7DF07D6
:1012400009F58091E5028A7A91E009F490E09093A3
:10125000AE018111CDC289E20E94FD220E94021ED0
:101260008091BA02877009F4CFC2F7018581882383
:1012700009F4CAC28091420582FFC6C282E00E9480
:101280002021C2C2C330FCE7DF0721F140F4C115C1
:101290008CE7D80789F0C130DC4711F133C0CB357A
:1012A000ECE7DE0739F1CC35FCE7DF07D9F0CA35CA
:1012B000DC4741F581E01FC00E9463218FEF94E37A
:1012C000ECE081509040E040E1F700C000000E9457
:1012D000571DC6CF6FEF7FEF80E090E00E9454294A
:1012E0000E949D068091420582FB882780F991E04B
:1012F000892701C080E00E94372104C0C631DC4745
:1013000009F478C2F7018581C081D181882349F031
:10131000CE010E94B71E182F682FCE010E94D52043
:1013200004C0CE010E94A220182FBE01812F0E946E
:10133000E6140E940315D82FC92FC82EF701158176
:10134000068102950F708091BA02877001F1112316
:10135000F1F0892F807F803469F080E28D0F883032
:10136000B0F0892F807E803229F4F1E0FD1778F407
:10137000002369F08091420582FF09C082E00E944B
:1013800020218091BA028770DD24D3948111D12C61
:10139000BC2EB2948FE0B8228B2D90E08C3091055A
:1013A00008F0FEC1FC01E158FF4F0C948A298C2FF4
:1013B000807FCF70882311F0C295C07F1123B9F0D0
:1013C000CC2309F4D6C180E28D0F883010F0C11013
:1013D00006C09091E502C92BC093E50205C090912B
:1013E000BC02C92BC093BC020E94021EC2C18D2F39
:1013F0000E94B306CC2309F4D3C1D05ED83080F16B
:10140000CC2071F1C0959091BC02C923C093BC025D
:101410002AC08C2F807FCF70803211F0C295C07FA0
:10142000CC2029F021E0C21609F44CC055C08091AF
:10143000420582FD1BC0112369F0CC2339F0909145
:10144000E502C92BC093E5020E94021E80E00E94C3
:10145000E606A6C180E00E94B306CC2309F4A0C131
:101460008C2F0E94FB1D0E94021E9AC1112381F045
:101470000023B1F1013009F093C19091BB028C2F90
:101480008923C81709F48CC1C92BC093BB0288C13A
:10149000011186C18C2F0E9494218091BB029C2F48
:1014A000982329F09C2F909589238093BB028091EB
:1014B000AF019C2F982309F473C1C0958C238093AE
:1014C000AF016EC1112321F0063008F069C108C0D8
:1014D000053008F065C119C0112331F0011149C16F
:1014E0008C2F0E949B215CC1002379F0D93341F4F9
:1014F0008FEF97EEE3E081509040E040E1F74BC181
:101500008FE39CE90197F1F746C18C2F0E9494214B
:1015100047C18C2F86958695837019F0813061F0D4
:101520003FC1112321F08D2F9C2F937002C080E0CA
:1015300090E00E9459233AC1112321F08D2F9C2F56
:10154000937002C080E090E00E9434232FC1612F8D
:101550008D2F0E948C052AC18C2F837009F041C009
:10156000111122C12D2F229526952770220F220FAF
:101570008D2F8F7090E0022E02C0880F991F0A9461
:10158000E2F7D4FF0BC04FE050E002C0440F551FFC
:101590002A95E2F79A012095309502C020E030E0CC
:1015A000C695C695C370C23099F068F44091C001E9
:1015B0005091C101C13029F0822B932B84239523B4
:1015C00004C0842B952B822B932B0E945E21ECC0B0
:1015D000822B932B2091C0013091C1018227932748
:1015E000F4CF112319F08C2F817001C086958823C8
:1015F00009F4DAC02D2F229526952770220F220F8D
:101600008D2F8F7090E0022E02C0880F991F0A94D0
:10161000E2F7D4FF0BC04FE050E002C0440F551F6B
:101620002A95E2F79A012095309502C020E030E03B
:10163000C695C695C370C23079F0B8F44091DE010A
:101640005091DF01C13029F0822B932B8423952305
:101650000EC0842B952B09C0822B932B2091DE0189
:101660003091DF018227932702C0822B932B0E94A7
:1016700009219AC0CF70112339F08C2F0E944E217E
:101680008D2F0E949B2190C08D2F0E9494218C2F22
:101690000E940E2189C08D2F92EFC91689F19C15E9
:1016A00038F0E0EFCE1659F0F1EFCF1621F15DC022
:1016B00023EFC21661F194EFC916C9F056C0112389
:1016C00091F0053008F06CC0CF7181E090E002C06D
:1016D000880F991FCA95E2F72091DE013091DF0152
:1016E0008227932721C0063008F05AC0EDCF8091A1
:1016F000420582FD1CC0112329F08C2F8F7129C057
:101700001123D9F38C2F8F710E940E2149C0112310
:1017100049F0CF7181E090E002C0880F991FCA950F
:10172000E2F702C080E090E00E94092139C0112355
:1017300099F0CF718C2F0E944E218091420582FF3B
:1017400007C0E8E0CE9FC001112483608093BA02F5
:101750008C2F0E944E2124C081E00E942021023063
:10176000F8F082E00E9420211BC0112321F0002309
:1017700021F28D2F6CCE002329F2893341F4FFEF43
:1017800027EE83E0F15020408040E1F704C0EFE312
:10179000FCE93197F1F700C000008D2F0E94B306DD
:1017A00088EF8B0D843010F40E947E23DD20A9F099
:1017B0008091BA0280FD11C0F70115828695869549
:1017C00086950E944E21C7010E94EA078091BA02C5
:1017D0008695869586950E940E2120E0F70140812E
:1017E000518162817381848195810E9478060CC049
:1017F00085E332CD8091AE01811104C089E20E945F
:10180000CF222CCD85E3FBCFCDB7DEB7E9E00C943A
:10181000FD28292F33272115310519F0C90148E08A
:1018200001C040E09C0164E0369527956A95E1F798
:101830002115310511F04C5FC9019C0136952795A2
:10184000369527952115310511F04E5FC9019C0190
:1018500036952795232B09F04F5F842F0895A0E13B
:10186000B0E0E5E3FCE00C94D82885B7806885BF3C
:1018700085B7806885BF84B7877F84BF0FB6F8942B
:10188000A89580916000886180936000109260004C
:101890000FBE90E080E80FB6F894809361009093BB
:1018A00061000FBE82EE91E19093AD018093AC0197
:1018B0000E94061C0E94251C8091E2008460809397
:1018C000E200789480914F028823A1F01091E90002
:1018D0001F709091EC00892F817090FD80E8182B8B
:1018E0001092E9008091E80083FD0E9400191F70AA
:1018F0001093E90082E084BD93E095BD9AEF97BD17
:1019000080936E001092B0011092B1011092B2015A
:101910001092B3018091D80080618093D8002AE1B1
:101920002A95F1F700C08091D900182F117080FD21
:1019300004C00E94061C10924F02109339051093A8
:101940003A051093000111110E945E2788E0E1E240
:10195000F5E0DF011D928A95E9F78091000191E0A1
:1019600089278093D901809100019093DC018091B7
:10197000000180910001811106C084EF80934B012A
:1019800085EF80934C0160E080E00E94122461E0CA
:1019900080E00E941224EFE8F1E03197F1F700C0F7
:1019A000000010E08091DC01181790F460E0812FB6
:1019B0000E94F623082F61E0812F0E94F623E12F79
:1019C000F0E0E652FE4F880F082B00831F5FEACF3E
:1019D0008091000180910001811102C095E001C059
:1019E00090E09093BF0185E0891B8093BE010DE4D8
:1019F00011E0B2E5EB2EB1E0FB2ED8018D918D0107
:101A00008F3F11F00E946014E016F106B1F702E575
:101A100011E0F80181918F018F3F11F00E94601455
:101A2000F1E008351F07A9F78AE0E2ECF1E0DF01F9
:101A3000282F1D922A95E9F7E4EBF1E0DF011D92D2
:101A40008A95E9F780E090E00E942029863E9E4F2B
:101A500009F466C066EE7EEF80E090E00E945429B3
:101A600060E082E090E00E94362981E090E090936F
:101A7000C1018093C00161E083E090E00E943629BB
:101A800060E074E184E090E00E94542960E086E028
:101A900090E00E94362960E087E090E00E943629BD
:101AA00040E050E0BA0188E090E00E94482960E000
:101AB00084E290E00E94362960E087E190E00E9495
:101AC000362960E08CE090E00E94362960E08DE0ED
:101AD00090E00E94362919821A821B821C821D8284
:101AE0001E821F82188648E050E068E170E0CE0157
:101AF00001960E94262940E050E0BA0180E290E081
:101B00000E94482940E050E0BA018FE090E00E9436
:101B1000482940E050E0BA0183E190E00E94482962
:101B200082E090E00E9418298093CC0184E090E04C
:101B30000E94202990934205809341050E9420161F
:101B4000EFEFF6E721E0E150F0402040E1F700C080
:101B500000000E9420168091C20180FF08C06FEF34
:101B60007FEF80E090E00E9454290E94571D83E09F
:101B700090E00E94182990E00E945E218091390532
:101B8000811183E08093000280FD02C080E801C0E3
:101B900080E2809310030E94EE256BE070E081E408
:101BA00091E00E94A024882309F443C080910002A0
:101BB00065E070E081FD3AC08CE391E00E94A024D2
:101BC0008823B9F16DE070E08AE291E00E94A024E0
:101BD000882379F10E949D1DDC01CB01805A95413B
:101BE000AF4FBF4F80931B0590931C05A0931D051D
:101BF000B0931E05E3E1F3E080E092E0DF019C0199
:101C00001D9221503040E1F7F0931A05E093190539
:101C10008FEF9FEF909312038093110381E08093E5
:101C2000200580931F051092010203C087E391E015
:101C3000C5CF80913905811102C00E94612781E0E2
:101C400091E090933E0580933D05F8E12F2E312CD5
:101C500044244394512C80914F02853009F044C0B4
:101C600000E112E180914F02853009F039C0809186
:101C70004F02843021F10E94AD241092430530E4DC
:101C80000FB6F894A895209260000FBE30936000C4
:101C900083B7817F846083BF83B7816083BF78947B
:101CA000889583B78E7F83BF0FB6F894A8958091EF
:101CB0006000886180936000109260000FBE809188
:101CC0004E02882309F4CECF0E942016E2ECF1E008
:101CD0008191811153C381E0EC3CF807C9F7C2CF71
:101CE0000E9463210E947E230E9420167DECE72E35
:101CF00071E0F72EE2ECCE2EE1E0DE2E27ED31E0B2
:101D0000D601F70191918D9189272E173F0719F080
:101D10008823C1F306C0811104C00E94BD21D12CCB
:101D200038C08090390510E077247394D6019D90D7
:101D30006D01F701A080A92411F100E0BB24B39448
:101D40008A2D8B21B1F08820A1F009871A870E9483
:101D5000A91D9C878B877D8691E0892D8B2109F4B5
:101D600090E09E8749855A856B857C858D850E948C
:101D70005A070F5FBB0C063019F7D7019C921F5F03
:101D8000BFEFEB1AFB0A1A3089F60E947714DD24A4
:101D9000D39480913905882321F00E945724E82E9E
:101DA00001C0E12C8091DD01882351F01092DD010A
:101DB000809123058093240580912105809322053D
:101DC000F12C8091DC01F81608F042C061E08F2D03
:101DD0000E94F623182F60E08F2D0E94F623E12F3A
:101DE000EE0F8E2B0F2D10E0D801A652BE4FEC91B6
:101DF0002E2F237030E0482F50E02417350731F1A3
:101E0000EE0FEE0FE82BEC938091D9018F0DEF7060
:101E1000F0E0E85AFE4F09521E4FC080F801908151
:101E2000C90EC082F1E0FC1514F460E004C02FEF8D
:101E3000C2161CF461E00E9433248C2DCC0C990B4B
:101E400062E070E00E947629D8018C93F394B9CFB8
:101E500080913905882319F00E945724E82AEE2042
:101E600021F00E947714DD24D394809120058823EB
:101E700009F47AC180910202909103020E948E1DA2
:101E8000C29708F46AC00E94A91D90930302809330
:101E9000020283E193E090931A05809319058091E3
:101EA000390560E0882309F454C085E891E00E9478
:101EB00088248091DE019091DF010E94090C882323
:101EC00031F0813051F460E08BE791E003C060E0D5
:101ED00080E891E00E949A2405C060E086E791E0E6
:101EE0000E94882460E083E791E00E94882460E0FB
:101EF0008DE691E00E949A248091DE019091DF01AD
:101F00000E94090C823059F030F0833071F460E0A7
:101F10008BE591E007C060E087E691E003C060E0F8
:101F200081E691E00E94882405C060E085E591E0AB
:101F30000E949A2460E082E591E00E9488240E9439
:101F40007E2381FB662760F98CE491E00E949A244D
:101F500004C088E891E00E94882480911103909148
:101F60001203892B31F480911F05882309F4FCC0EA
:101F7000E4C0809120058823B1F380910102811192
:101F8000F2CF0E94C7242091110330911203211532
:101F9000310549F380E0082F10E07201082E02C0DD
:101FA000EE0CFF1C0A94E2F7A70142235323452BB2
:101FB00011F48F5FF0CF90910002980165E0220F3D
:101FC000331F6A95E1F790FF13C055E036952795CA
:101FD0005A95E1F7220F220F220F20930D01109244
:101FE0001001295F20930E0183E08093110111C03D
:101FF000220F232F221F330B31958295880F807675
:1020000080930D0120931001815E80930E01209337
:10201000110124E630E047E050E06BE071E088E732
:102020000E942326892B09F09ECF8091000280FF19
:1020300064C080E2E0EEF1E0DF011D928A95E9F7ED
:10204000A80135E0440F551F3A95E1F7ECE6F1E0C1
:10205000F88BEF8708E611E0AF85B8898D91B88BD2
:10206000AF87F80191918F01BA01690F711D6D5E03
:102070007C4F90E080529E4FFC0127E0922E9F0102
:10208000281B390B742C01C0770C2A95EAF75B01E9
:10209000812CD501CD905D01C720292D28192770ED
:1020A000622E022E000C330BBC2D01C0BB0F6A94B4
:1020B000EAF76B2E3195219531092770332701C03E
:1020C000C6942A95EAF76C28C0806C2860828394B5
:1020D00028E08212DECF9A9431963FEF9312CFCF51
:1020E0008F8598898057914009F0B6CF04E610E0BB
:1020F00020E230E040EE51E00CC0A80185E0440F42
:10210000551F8A95E1F74D5E5C4F04E610E020E232
:1021100030E060E488E70E94BA26892B09F023CFDB
:10212000E094F0948091110390911203E822F92237
:10213000F0921203E092110316CF0E949D1D0091B0
:102140001B0510911C0520911D0530911E05DC0119
:10215000CB01801B910BA20BB30B8F3F9F4FAF4F57
:10216000BF4710F40E94AD24D1100E94C72486E01E
:10217000E0E3F5E0DE01119601900D928A95E1F71A
:10218000D0903105F090320500913305109134055F
:10219000E090350510923205109233051092340507
:1021A00010923505F11003C0002309F447C0809157
:1021B0002E0590912F050E948E1D9C01909129055E
:1021C000992309F4F1C025313105C0F19F3F19F081
:1021D0009F5F90932905FF2061F00E94B1231F1497
:1021E00014F09FEF01C091E0899F802D112480930E
:1021F0003205002361F00E94B123101614F491E01F
:1022000001C09FEF899F802D112480933305809119
:102210003205882399F0C0903305CC2079F00E94D4
:10222000D123811101C081E0809332058C2D0E9461
:10223000D123811101C081E080933305111103C0C6
:10224000EE2009F447C080912C0590912D050E9445
:102250008E1D9C0190912A05992309F4AAC021356D
:102260003105C0F19F3F19F09F5F90932A0511231C
:1022700061F00E948F23111614F09FEF01C091E0CE
:10228000899F802D112480933405EE2061F00E94F7
:102290008F231E1414F491E001C09FEF899F802DBD
:1022A00011248093350580913405882399F0C090DE
:1022B0003505CC2079F00E94D123811101C081E045
:1022C000809334058C2D0E94D123811101C081E0BF
:1022D0008093350580913105D8121AC0809132055E
:1022E000882311F0F81214C080913305882311F06F
:1022F00008130EC080913505882311F08E1108C097
:1023000090913405992331F081E0191304C002C083
:1023100081E001C080E080FD15C08091320581110F
:102320000FC08091330581110BC08091340581115C
:1023300007C081E090913505911103C080E001C094
:1023400081E080FD0E947125DA82FB820C831D836F
:10235000EE8286E0FE013196A0E3B5E001900D9299
:102360008A95E1F70E947E2390910402891709F46F
:1023700072CC809304020E949D1D6DCC09BD19BDD5
:1023800009B400FEFDCF8091D8008F7D8093D800E6
:102390008091E00082608093E0008091E00081FD08
:1023A000FCCF0E9463215ECC2B30310508F010CFAA
:1023B00045CF2B30310508F057CF8CCF81E080938B
:1023C000DD01089580E008959091410592FF10C0CD
:1023D00041E0282F2471243009F040E031E0282F1B
:1023E0002871283009F030E0431711F02CE08227E3
:1023F00093FF10C041E0282F2471243109F040E000
:1024000031E0282F2871283109F030E0431711F00E
:102410002CE082273091420530FF10C051E0282F78
:102420002171213009F050E041E0282F2871283037
:1024300009F040E0541711F029E0822731FF10C065
:1024400041E0282F2171213109F040E031E0282FAF
:102450002871283109F030E0431711F029E0822774
:1024600094FD877E08958238910569F1B0F4813337
:10247000910509F475C048F48932910509F467C0E3
:102480008A32910509F471C008958533910509F4E4
:1024900059C089339105B9F00895833E910589F1BA
:1024A00038F4803E9105D1F0823E910529F10895DE
:1024B000863E9105C9F1873E9105D9F1843E91058B
:1024C00009F06CC027C02091410520FD57C021FDB7
:1024D00055C02091420523FD5BC0089580914105C0
:1024E00080FD48C08091420580FF48C08091410531
:1024F00084FD46C083EE51C08091410582FF3CC0FF
:10250000F5CF8091410582FD37C08091420580FD65
:1025100035C0ECCF8091420581FF36C080914105E6
:1025200084FD2EC087EE39C08091410583FF2AC00B
:10253000F5CF8091410583FD25C08091420581FD45
:1025400023C0ECCF8091410585FD22C01FC0809142
:10255000410585FD1BC08091420583FF19C00AC05B
:102560008091410586FD16C017C08091410586FD0A
:1025700013C010C089E311C082EE0FC080EE0DC001
:1025800080E00BC086EE09C084EE07C085E305C07D
:1025900089E203C08AE201C081E390E00895A0E0EF
:1025A000B0E0E5EDF2E10C94E0287C015B016A010A
:1025B00080913D028A3018F001E010E002C00AE08C
:1025C00010E0C1E0D0E0B501C701F6010995811125
:1025D00015C021960C171D0794F0CC9F9001CD9F3C
:1025E000300D300D112480E090E045E34A95F1F77D
:1025F0000000019682179307C1F7E5CF81E0CDB7C0
:10260000DEB7EAE00C94FC280F931F93CF93DF937F
:10261000EC0145E050E067E272E00E9490290091F1
:1026200018021091190220911A0230911B02EFB783
:10263000F89440913E0250913F02609140027091A7
:102640004102EFBF401B510B620B730B4436510527
:102650006105710510F4892B09F180912301909196
:1026600024018F5D9D4F4091220150E0463051057D
:1026700010F045E050E0BE010E949D2982E090E00C
:102680000E944928882359F00E949D1D60931802DA
:102690007093190280931A0290931B0281E0DF91DC
:1026A000CF911F910F910895A1E0B0E0EAE5F3E129
:1026B0000C94DC28C62E4A015901682E880F770831
:1026C000C3010E944928882309F473C0C30123E091
:1026D000880F991F2A95E1F7FC01EE5EFE4F4381BA
:1026E00050E04115510511F041E050E0FC01EE5E73
:1026F000FE4F648175816F5D7D4FCE0101960E9412
:102700009D29F40140815181628173812FB7F89432
:1027100080913E0290913F02A0914002B09141020F
:102720002FBF841B950BA60BB70B84369105A10513
:10273000B10538F4B701C8010E94DF2399818917D8
:10274000D1F10C2C000CDD08C6010E944928782E1E
:102750008823E1F0E114F104C9F0960183E0220F2F
:10276000331F8A95E1F7F901EE5EFE4F438150E099
:10277000E416F50608F4A701F901EE5EFE4F648148
:1027800075816F5D7D4FC5010E949D29B701C8010C
:102790000E94DF2391E02981281390E0D92ED720D1
:1027A00089F00E949D1DF40160837183828393836D
:1027B00009C0D12C02C0DD24D394A701B801C50102
:1027C0000E949D298D2D2196EEE00C94F828A8E01A
:1027D000B0E0EDEEF3E10C94E42888E0E82EF12C73
:1027E0000DE212E09E012F5F3F4F4DE152E064E0A9
:1027F00083E00E945413182F882389F190912C02B2
:1028000080911C02981759F120E09091300280913C
:102810002F028917C9F0E92FF0E0EB5DFD4F8485A9
:1028200087FB662760F99F5F9370909330029091C9
:102830002E029F5F90932E028F770E94332421E017
:102840008111E3CF10E002C0222329F085E090E05F
:102850000E944928182380912C0280931C02812F0A
:102860002896E6E00C940029A5E0B0E0EAE3F4E164
:102870000C94E2286B0185E0E82EF12C02E212E0D4
:102880009E012F5F3F4F44E152E061E080E00E94F3
:102890005413882349F095E0FE013196AFE0B2E091
:1028A00001900D929A95E1F795E0EFE0F2E0D60104
:1028B00001900D929A95E1F72596E8E00C94FE2898
:1028C000F894E82FE295EF70F0E031A1282F2F70F7
:1028D00081E090E001C0880F2A95EAF7982F909543
:1028E000932391A392A1892B82A3789408950F93A7
:1028F0001F9380913905882319F00E949D1D0EC0F9
:102900000E949D1D0091B0011091B1012091B20172
:102910003091B301600F711F821F931F1F910F91A0
:102920000895A4E0B0E0E7E9F4E10C94E8284091D0
:10293000390250913A0260913B0270913C022FB7EC
:10294000F89480913E0290913F02A0914002B09194
:1029500041022FBF841B950BA60BB70B8436910544
:10296000A105B10570F10E947714DC01CB0102963C
:10297000A11DB11D89839A83AB83BC8380914301E0
:10298000909144018F5D9D4F4091420150E0453050
:10299000510510F044E050E0BE016F5F7F4F0E9490
:1029A0009D2986E090E00E944928882359F00E94E2
:1029B0009D1D6093390270933A0280933B0290937D
:1029C0003C0281E02496E2E00C9404297A30B0F4D1
:1029D0006630A0F48530A0F49CE3899FF0011124B7
:1029E00086E0789FE00DF11D1124E60FF11DEE0F3A
:1029F000FF1FE853FE4F85919491089580E001C038
:102A000081E090E008951F93CF93DF930E943312EB
:102A1000EC01C11580E5D807E8F5C11590E4D907A8
:102A200008F0A8C0C03ED10530F5CD3CD10508F076
:102A300094C0C83AD10578F4C53AD10508F083C0EE
:102A4000C130D10509F47CC008F4F2C0C430D1050E
:102A500008F0F1C0EDC0C33CD10508F0E9C0C85A88
:102A6000D0E0CC0FDD1FCD58DE4F0990D881C02DAE
:102A7000CE019464E1C0C11580E2D80708F0CBC054
:102A8000C11591E0D90708F06BC0C83ED10508F424
:102A9000D2C0CEC0C03682E5D80728F5C03492E552
:102AA000D90708F079C0C03282E5D80708F06CC0B9
:102AB000C11592E5D90708F481C04C2F469546957B
:102AC00080E2489FA0011124C37021E030E0C901D9
:102AD00002C0880F991FCA95E2F7EA01C82BD92BCB
:102AE000CE019D68A9C0C03A82E5D807B8F48C2F02
:102AF0008F71C03892E5D90708F07BC0869586951E
:102B000090E2899F90011124C37081E090E002C09F
:102B1000880F991FCA95E2F79A6868C0C03C82E5A1
:102B2000D80708F46DC0C03E92E5D90708F080C010
:102B3000CF71DD27DC2FCC27CE01806F906A7CC05F
:102B400081E090E079C0C55AD0E0C059DE4F88815D
:102B5000C82FD0E0CE0190646FC0CE0190656CC0EC
:102B60008D2F0E94E411182FCE0199270E94331255
:102B70001F715CC0CE0199270E943312CC27DF70F1
:102B8000D06A8C2B9D2B58C0CF71D0E0DC2FCC2786
:102B9000CE01816F906A50C08C2F8F71869586957B
:102BA00090E2899F90011124C37081E090E002C0FF
:102BB000880F991FCA95E2F79C6818C08C2F8F71F7
:102BC0000E94E41195E0D695C7959A95E1F7CF70EC
:102BD000D0E0DC2FCC27282F30E084FF05C084E034
:102BE000220F331F8A95E1F7D069CE01822B932BF8
:102BF00023C090E0D82FCC27CE01846F906A1CC0F0
:102C00008C2F8F710E94E4118F7190E0D82FCC2708
:102C1000CE01906211C08D2F8F710E94E411182F88
:102C2000CE0199270E9433121F719062912B04C02C
:102C300080E090E001C0CE01DF91CF911F91089517
:102C4000AFE0B0E0E6E2F6E10C94DB28AE014F5FC6
:102C50005F4F7A018AE0DA011D928A95E9F70DE467
:102C600011E06A0182E5682E81E0782EAA24A394FF
:102C7000B12C28E5822E21E0922EF80180818F3F31
:102C800009F440C0F894E82FE295EF70F0E021A13C
:102C90008F70A50102C0440F551F8A95E2F7CA0143
:102CA000922F982B91A392A18095892382A3789447
:102CB00000C0E2E5F1E0512C31E021912F3F89F095
:102CC000A22FA295AF70B0E090968C9190E02F70FB
:102CD00002C0959587952A95E2F780FD02C0832F63
:102CE00001C080E0582A330F8E169F0631F7D801B5
:102CF0008C918F3F11F00E946014B0EABA95F1F701
:102D0000F60150820F5F1F4FFFEFCF1ADF0A6016E8
:102D1000710609F0B2CF4AE050E0B70184EB91E0D0
:102D20000E949029892B99F08AE0F701A4EBB1E089
:102D300001900D928A95E1F781E0809307020E944D
:102D4000A91D9093060280930502D12C27C0809183
:102D500007028823D1F30091BF0180910502909171
:102D600006020E948E1D059780F310E00E531E4F41
:102D700045E050E064EB71E0C8010E949029892B86
:102D800009F4EDC085E0E4EBF1E0D80101900D928B
:102D90008A95E1F7DD24D3941092070280913905DA
:102DA000E091BF01882309F479C07E012BE0E20E97
:102DB000F11C85E0D7011D928A95E9F70E2F10E0EE
:102DC0000E531E4F80913D028A3048F444E354E193
:102DD000B701C8010E94CF128823A9F10AC08091CF
:102DE0000802909109020E948E1D843F914070F765
:102DF0003BC044E053E1B701C8010E94CF128823D1
:102E000011F147EE53E1B701C8010E94CF128823A8
:102E1000D1F041E954E1B701C8010E94CF128823E3
:102E200091F010923D028091BE0190E045E050E0AB
:102E3000B7018E539E4F0E94902921E020930E02ED
:102E4000892BF1F486C080913D028F3F19F08F5F8E
:102E500080933D0280913D028A3028F30E94A91D93
:102E6000909309028093080280910E02882309F44E
:102E700070C085E0F70111928A95E9F710920E0271
:102E8000A091BE01B0E0AE53BE4F85E0FE013B967F
:102E900001900D928A95E1F781E05CC00091BE013E
:102EA00010E00E531E4FF0E0EE53FE4F85E0A2E21D
:102EB000B2E001900D928A95E1F765E070E082E260
:102EC00092E00E94DF238093210285E0E7E2F2E0B6
:102ED000D80101900D928A95E1F788E0E1E2F5E0F2
:102EE000ADE2B2E001900D928A95E1F768E070E002
:102EF0008DE292E00E94DF2380932C0280903502C5
:102F000090903602A0903702B090380280910A0269
:102F100090910B02A0910C02B0910D0288169906B7
:102F2000AA06BB06B1F080920A0290920B02A09210
:102F30000C02B0920D020E949D1D861A970AA80AE3
:102F4000B90A8092B0019092B101A092B201B09200
:102F5000B30180E08D292F96EFE00C94F728D12C57
:102F60001BCF2091E4003091E50095E64091EC0004
:102F7000842F817040FF23C08091E80080FD1DC038
:102F800080914F02882399F0853099F08091EB0071
:102F900085FD11C04091E4005091E50024173507EC
:102FA00029F3915011F09A01E1CF84E0089582E075
:102FB000089583E0089581E0089580E008954091A8
:102FC000E80042FFDDCF08958091510287FF11C0D4
:102FD0008091E80082FD05C080914F028111F8CFF9
:102FE00011C08091E8008B770BC080914F0288233D
:102FF00049F08091E80080FFF8CF8091E8008E775B
:103000008093E8000895982F973068F59093E90031
:10301000981739F07091EC002091ED005091F0007C
:1030200003C0242F762F50E021FD02C09F5FECCF1C
:103030003091EB003E7F3093EB003091ED003D7F0F
:103040003093ED003091EB0031603093EB007093E2
:10305000EC002093ED005093F0002091EE0027FD4E
:10306000E5CF80E008958F708093E90081E00895B6
:1030700020915702309158022617370748F0611502
:10308000710539F42091E8002E772093E80001C003
:10309000B901FC0120E06115710579F180914F02C1
:1030A0008823F1F18530F1F18091E80083FD3CC087
:1030B0008091E80082FD2EC08091E80080FFEBCF78
:1030C0002091F3008091F20090E0922B6115710540
:1030D00051F08830910538F421912093F10061502E
:1030E00071090196F3CF21E0089709F020E0809163
:1030F000E8008E778093E800CECF2111CFCF0AC0B1
:1031000080914F02882361F0853061F08091E80062
:1031100083FD0AC08091E80082FFF2CF80E008952D
:1031200082E0089583E0089581E00895809144024B
:1031300008950F931F93CF93DF938B01EA01909132
:103140004F02943079F58F708093E9008FEF909162
:10315000E800815095FD06C095ED9A95F1F70000C5
:103160008111F5CF8091E80085FF1CC00E94B11746
:10317000882361F08091E8008E778093E80012C088
:10318000F80181918F018093F1002197209791F3AD
:103190008091E80085FDF4CF8091E8008E778093E0
:1031A000E800E4CFDF91CF911F910F91089543E0A4
:1031B00050E0BC0182E00E949918089546E050E07A
:1031C000BC0182E00E949918089540E250E0BC01E1
:1031D00082E00E9499180895CF93DF93EC0148E0B4
:1031E00050E0BC0181E00E94991888E0FE01A5E44E
:1031F000B2E001900D928A95E1F7DF91CF910895A9
:10320000AAE2B0E0E6E0F9E10C94E728E1E5F2E0BB
:1032100089E592E02091F10021938E179F07D1F765
:1032200080915202833009F461C030F4813071F032
:10323000823009F49BC0B2C08A3009F487C08B3059
:1032400009F46CC0893009F0A9C020C080915102F6
:10325000813A09F0A3C08091E800877F8093E8005D
:103260008091550290915602892B21F468E085E403
:1032700092E003C060E080E090E070E00E943818C7
:103280008091E8008B778093E80088C0809151029C
:10329000813209F083C080915502909156020297C5
:1032A00008F07CC08091E800877F8093E8008091DF
:1032B000E80082FD05C080914F028111F8CF6EC0F9
:1032C0002091F3008091F20090E0922B029731F46C
:1032D0008091F100813011F0863021F48091F1006D
:1032E000809344028091E8008B7754C08091510212
:1032F000813A09F053C08091550290915602892B72
:1033000009F04CC08091E800877F8093E8008091AD
:10331000E80080FFFCCF80914A0137C080915102C4
:103320008132E1F58091550290915602892BB1F5D9
:103330008091E800877F8093E8000E94E4178091E5
:10334000530280934A010E94632128C08091510258
:10335000813221F58091E800877F8093E8000E9408
:10336000E417809154028093430218C08091510267
:10337000813AA1F48091E800877F8093E8008091F2
:10338000E80080FFFCCF809143028093F1008091A0
:10339000E8008E778093E8000E94E4178091E800AF
:1033A00083FFCEC18091510290915202492F50E08B
:1033B0004A30510508F0C4C1FA01E557FF4F0C949B
:1033C0008A29803821F0823809F0BAC108C080917A
:1033D0004D0290914E02992389F082600FC0809136
:1033E00055028F70873008F0ABC18093E90080915F
:1033F000EB0085FB882780F91092E9009091E800A6
:10340000977F9093E8008093F1001092F10065C1DE
:10341000282F2D7F09F094C1882319F0823061F0A4
:103420008FC180915302813009F08AC1933009F035
:1034300080E080934E022EC08091530281112AC0F9
:10344000809155028F702FEF280F263008F078C139
:103450008093E9002091EB0020FF1CC0933021F401
:103460008091EB00806214C09091EB00906190938A
:10347000EB0021E030E0A90102C0440F551F8A95FE
:10348000E2F74093EA001092EA008091EB00886036
:103490008093EB001092E9008091E800877F20C1C3
:1034A00081114EC1109153021F778091E300807803
:1034B000812B8093E3008091E800877F8093E80070
:1034C0000E94E4178091E80080FFFCCF8091E30028
:1034D00080688093E300111102C082E001C083E0A4
:1034E00080934F022DC18058823008F029C180910D
:1034F0005302909154028C3D53E0950779F583E097
:103500008A838AE289834FB7F894DE01139620E01C
:103510003EE051E2E32FF0E050935700E49120FFAA
:1035200003C0E295EF703F5FEF708E2F90E0EA30BE
:1035300010F0C79601C0C0968D939D932F5F2431E4
:1035400049F74FBF8091E800877F8093E8006AE2E7
:1035500070E0CE0101960E943818AEC0409155022D
:1035600050915602292F332723303105A9F068F4F2
:103570002130310509F4F3C02230310509F0E0C0F3
:103580008BE390E0EAE1F5E044C02132310521F11E
:103590002232310571F1D4C0992781309105A1F013
:1035A00058F0029709F0CCC0E7E6F5E0E4918E2FE1
:1035B00090E0E7E6F5E02AC0E1E9F5E0E4918E2F3E
:1035C00090E0E1E9F5E022C0E5E7F5E0E4918E2F37
:1035D00090E0E5E7F5E01AC04115510509F4C4C0D3
:1035E0004130510509F0ACC089E090E0E5E4F5E038
:1035F00010C04115510509F4BCC04130510509F016
:103600009FC086EB90E0E0E2F4E003C0009709F48D
:1036100097C02091E800277F2093E800209157026F
:10362000309158028217930708F49C0140E021155D
:10363000310589F180914F02882309F43DC085301E
:10364000D9F18091E80083FD37C08091E80082FDC8
:103650002FC08091E80080FFEACF4091F300809175
:10366000F20090E0942B2115310559F08830910536
:1036700040F444914093F100319621503109019674
:10368000F2CF41E0089709F040E08091E8008E77A2
:103690008093E800CCCF4111CDCF0AC080914F027A
:1036A000882351F0853041F08091E80083FD04C00B
:1036B0008091E80082FFF2CF8091E8008B778093C1
:1036C000E8003EC08038E1F58091E800877F809374
:1036D000E800809150028093F1008091E8008E779D
:1036E0008093E8000E94E4172BC0811129C08091CB
:1036F0005302909154029927029714F58091E800A3
:10370000877F8093E80010915302109350020E942B
:10371000E417111106C08091E30087FD02C081E02B
:1037200001C084E080934F0242E061EC81E00E949E
:10373000031842E261EC82E00E94031880914F027C
:103740008091E80083FF1AC08091E800877F809312
:10375000E8008091EB0080628093EB000FC082E173
:1037600090E0E5E5F5E055CF89E090E0ECE2F5E0AA
:1037700050CF84E490E0E6EDF4E04BCFAA96E3E08E
:103780000C9403291F920F920FB60F9211242F93BE
:103790003F934F935F936F937F938F939F93AF93D9
:1037A000BF93CF93DF93EF93FF93C091E900CF7066
:1037B0008091EC00D82FD17080FDD0E81092E90004
:1037C0008091F000877F8093F00078940E94001928
:1037D0001092E9008091F00088608093F000CD2B7A
:1037E000CF70C093E900FF91EF91DF91CF91BF912E
:1037F000AF919F918F917F916F915F914F913F9189
:103800002F910F900FBE0F901F901895E8EDF0E0EC
:1038100080818E7F80831092E2001092DA001092F5
:10382000E100A0EEB0E08C9181608C9380818F7775
:10383000808319BCA7EDB0E08C918E7F8C93808142
:103840008F7E8083109242020895A0E0B0E0EBE208
:10385000FCE10C94E228C8EDD0E088818F7E88835B
:10386000E7EDF0E080818160808384E082BF81E0C9
:103870008093420288818E7F888302EE10E0F801F7
:1038800010821092DA0081EEC82ED12CF60110823F
:1038900088818F77888388818068888388818F7DFD
:1038A000888319BC10924F021092500210924E025F
:1038B00010924D0290EEE92EF12CF70180818B7F62
:1038C000808388818160888342E060E080E00E949C
:1038D0000318F60180818E7F8083F80180818160EA
:1038E0008083808188608083F70180818E7F8083E0
:1038F000888180618883CDB7DEB7E8E00C94FE282C
:103900001F920F920FB60F9211242F933F934F9354
:103910005F936F937F938F939F93AF93BF93EF9337
:10392000FF938091E10082FF09C08091E20082FF55
:1039300005C08091E1008B7F8093E1008091DA00E7
:1039400080FF2AC08091D80080FF26C08091DA00D5
:103950008E7F8093DA008091D90080FF18C080E1CB
:1039600089BD82E189BD09B400FEFDCF81E080936D
:103970004F028091420281110FC00E94061C0E94DA
:10398000251C8091E20084608093E20005C019BC90
:1039900010924F02109242028091E10080FF17C006
:1039A0008091E20080FF13C08091E2008E7F8093BF
:1039B000E2008091E20080618093E2008091D80073
:1039C00080628093D80019BC85E080934F0280917B
:1039D000E10084FF30C08091E20084FF2CC080E1D0
:1039E00089BD82E189BD09B400FEFDCF8091D80078
:1039F0008F7D8093D8008091E1008F7E8093E100DD
:103A00008091E2008F7E8093E2008091E2008160ED
:103A10008093E20080915002882311F084E007C077
:103A20008091E30087FD02C081E001C083E08093C4
:103A30004F0280914F028091E10083FF27C0809167
:103A4000E20083FF23C08091E100877F8093E10043
:103A500082E080934F02109250028091E1008E7FAD
:103A60008093E1008091E2008E7F8093E20080915C
:103A7000E20080618093E20042E060E080E00E942A
:103A800003188091F00088608093F000FF91EF911F
:103A9000BF91AF919F918F917F916F915F914F9166
:103AA0003F912F910F900FBE0F901F90189587E7B1
:103AB00097E790930108809300089AE088E10FB699
:103AC000F894A895809360000FBE90936000FFCF9C
:103AD00078941F920F920FB60F9211248F939F9399
:103AE000AF93BF9380913E0290913F02A09140021C
:103AF000B09141020196A11DB11D80933E029093A9
:103B00003F02A0934002B0934102BF91AF919F91B9
:103B10008F910F900FBE0F901F9018959C014FB77B
:103B2000F89480913E0290913F02A0914002B091A2
:103B300041024FBF821B930B08952FB7F8946091F9
:103B40003E0270913F0280914002909141022FBF4E
:103B500008952FB7F89480913E0290913F02A09172
:103B60004002B09141022FBF08959091E5028091EB
:103B7000BC02892B9091BB029923E1F0892B909193
:103B80004A01992341F09091410597FF04C09EE1BD
:103B900022EF32E003C096E02AEE32E0F90120E0A5
:103BA000915028F031913323D9F32F5FF9CF2111B0
:103BB0001092BB0208952091B9029091800257E0C3
:103BC0002917A9F030E0529FF001539FF00D112406
:103BD000EF57FD4F7181761306C07081781303C0D3
:103BE0007581741306C02F5F3F4F2770E9CF80E0C7
:103BF000089581E0089580959091E502892380934E
:103C0000E502089580914A01882351F18091410590
:103C100087FF26C00E94B51D8093F10240E250E06C
:103C20006DEB72E080EF92E00E949029892BD9F130
:103C300080E2E0EFF2E0ADEBB2E001900D928A9508
:103C4000E1F7E0913D05F0913E05309761F186E0A6
:103C50008093F0020480F581E02D80EF92E022C095
:103C60000E94B51D8093E80248E050E06DED72E0DF
:103C700088EE92E00E949029892BA9F088E0E8EE76
:103C8000F2E0ADEDB2E001900D928A95E1F7E0919E
:103C90003D05F0913E05309731F00280F381E02D33
:103CA00088EE92E0099508958091B9029091800282
:103CB000891719F08F5F8770FBCF0895CF93DF933B
:103CC00080917F0282958F7009F04EC080917E02B4
:103CD000882309F449C08091B90240918002509133
:103CE0007A0260917902C0917B02D0917C0277E0E8
:103CF0008417D1F190E0789FF001799FF00D1124A5
:103D0000DF01AF57BD4F14962C911497222349F130
:103D100011962C911197251324C02C91261321C0A4
:103D200015962C91159721111CC012962D913C913E
:103D300013972C1B3D0B283C310598F480917F0292
:103D40008F70806180937F02E957FD4F80818F7073
:103D50008061808389E792E00E94EA070E94541EF6
:103D600003C001968770C4CFDF91CF910895A0E082
:103D7000B0E0EDEBFEE10C94E1287C010091DE0166
:103D80001091DF018091C0019091C101082B192B86
:103D9000CFE0D0E0CC24C394D12CC6010C2E02C0BD
:103DA000880F991F0A94E2F780239123892B21F42D
:103DB000219798F7B12C09C0BC2EB7018C2F0E9417
:103DC000E6140E940315019799F38B2DCDB7DEB74A
:103DD000E9E00C94FD28CF93DF93EC010E94B71E1D
:103DE000BE010E94E6140E940315DF91CF91089551
:103DF000FC0124812223D9F0808191810E94EB1E55
:103E000092959F70963079F010F4925001C09A50BC
:103E1000923068F4803F69F018F4883E40F409C09D
:103E2000843F29F406C0883E20F0813F11F080E0F5
:103E3000089581E00895A4E1B0E0E1E2FFE10C948F
:103E4000DE288C0186E0F801DE011F9601900D92BC
:103E50008A95E1F7F8018481E58099E7892E92E05F
:103E6000992E90917D02911120C0882309F463C19D
:103E7000EE2009F442C0C8010E94F81EF82E8823E3
:103E8000E1F187E0F801D40101900D928A95E1F704
:103E900080917D02813031F48091790290917A0293
:103EA0000E94EB1E0E945E1E48C1F801D080C180B6
:103EB000A280B380F0907E0220917B0230917C0240
:103EC000FF2009F4E7C0A501421B530B483C5105F4
:103ED00008F09DC0882309F430C180917F02282F0B
:103EE000207F90917A02222361F09C1509F460C032
:103EF000C8010E94F81E811163C0C8010E94EA0730
:103F00001AC19C1113C0909179029D110FC0E1104C
:103F10000DC08F70806180937F0289E792E00E94DC
:103F2000EA0780917F02F801868303C1E1103AC05D
:103F300040E06C2D8D2D0E94DB1D40E06C2D8D2D01
:103F40000E94DB1DE82E8111F4C0DF86C88A8F85B0
:103F500098890E94EB1E292F22952F70243020F47F
:103F60009F70223028F009C02A50223080F014C0FF
:103F7000992349F0811107C013C0992321F0F8015A
:103F80009681907F69F0805E883030F409C0803F70
:103F900038F0815F833020F0C8010E94EA07EF2CDF
:103FA000FE2CCBC080917F02816080937F02C1C0D4
:103FB000909179029D119CCFE1109ACFF80198C0A1
:103FC000EE2009F49ACF20917F02822F82958F7084
:103FD00090E002978CF08091790290917A02998713
:103FE0008887BB86AA8680917D028C871D862E8756
:103FF000CE0108960E94EA0787E0F801A9E7B2E03F
:1040000001900D928A95E1F70E945E1E94C09091F6
:104010007F02292F207F51F489E792E00E94EA076E
:1040200087E0F40111928A95E9F783C0882309F4A7
:1040300084C080917A028C110CC0809179028D111C
:1040400008C0E11006C0F8019683C8010E94EA0783
:104050006AC0C8010E94F81E882309F44ECFEE20E2
:1040600009F44BCF20917F02822F82958F7090E0D0
:10407000029714F28091790290917A029A8389834F
:10408000BC82AB8280917D028D831E822F83CE0104
:104090000196B0CFA21AB30AF8ECAF16B10408F03B
:1040A00042C0882309F447C0FE2CEE2009F425CF36
:1040B00080917A028C1129C0809179028D1125C0DE
:1040C00090917F0290FD18C0892F82958F70282FC4
:1040D00030E02115310581F0F80196832F3031054C
:1040E00041F08F5F982F9295907F86818F70892BFA
:1040F0008683C8010E94EA0787E0F801A9E7B2E0D9
:1041000001900D928A95E1F718C0C8010E94F81E2F
:10411000811172CF80917F02816080937F02C801FC
:104120000E94EA070AC087E0F40111928A95E9F734
:1041300004C0F12C02C0FF24F3948F2D6496ECE0B0
:104140000C94FA289A3078F5863068F5E82FF0E07C
:1041500086E0989FE00DF11D11249E2F977083E05B
:10416000F695E7958A95E1F7EE0FFF1FEE0FFF1F1B
:10417000E75AFD4F40E050E080E0219130E0092E09
:1041800002C0369527950A94E2F721703327042E52
:1041900001C0220F0A94EAF7822B4F5F5F4F443031
:1041A000510559F7089580E008959A3088F58630D2
:1041B00078F5E82FF0E086E0989FE00DF11D1124DE
:1041C0008E2F877051E001C0550F8A95EAF783E082
:1041D000F695E7958A95E1F7EE0FFF1FEE0FFF1FAB
:1041E000E75AFD4F20E030E070E04081CB01022E25
:1041F00002C0969587950A94E2F78170819584278D
:104200008523842781932F5F3F4F2430310569F741
:1042100008959093DF018093DE01089521E030E05E
:1042200002C0220F331F8A95E2F7209530958091C6
:10423000DE019091DF01822393230E9409210895DA
:104240009091BA02809589238093BA02282F277013
:1042500069F4981759F09091420592FF07C086952E
:10426000869586950E940E211092BA02089590912B
:10427000420592FB222720F9281779F080FB92F95A
:1042800090934205609141057091420584E090E071
:104290000E94542982E00E942021089521E030E00C
:1042A00002C0220F331F8A95E2F78091DE019091C0
:1042B000DF01822B932B0E94092108959093C10165
:1042C0008093C00108951092E50280914A018823ED
:1042D00041F08091410587FF04C08EE1E2EFF2E0FA
:1042E00003C086E0EAEEF2E0DF011D928A95E9F76D
:1042F00080E090E00E94592380E090E00E94342307
:104300001092BC020E94021EE0E3F5E086E0DF01AD
:104310001D928A95E9F71092290510922A051092AC
:104320002B050E9471250895882321F00E94FB1D12
:104330000E94021E0895882339F09091E502892B8E
:104340008093E5020E94021E08951F93CF93DF938E
:10435000182FEB010E94E606209741F08FE99FE0BD
:104360000197F1F700C000002197F6CF812F0E943E
:10437000B306DF91CF911F910895A6E0B0E0E3EC82
:10438000F1E20C94E6280E94A91D8C018091E602BE
:104390009091E7020817190781F019821A820E948A
:1043A000A91D682F49815A81792F80E090E00E94F1
:1043B0005A071093E7020093E6022696E4E00C9475
:1043C00002291F93CF93DF93162F8A3011F481E0D7
:1043D00003C08D3021F480E00E94752282C0C0911C
:1043E0001905D0911A0596E0FE01A3E1B5E0019010
:1043F0000D929A95E1F7803E30F086E0FE01119231
:104400008A95E9F70BC0F6E08F9FB00111246B5637
:104410007A4F46E050E0CE010E940F29111137C0BB
:10442000C0911905D0911A0546E050E0BE0183E124
:1044300095E00E949029892BC9F19E0123513340B8
:10444000A90185E0569547958A95E1F781E090E0CE
:10445000BC0102C0660F771F4A95E2F74091110335
:1044600050911203462B572B2B5F3F4F65E036953B
:1044700027956A95E1F702C0880F991F2A95E2F700
:10448000842B952B90931203809311030FC0E0911E
:104490001905F0911A059F012A5F3F4F2E173F071C
:1044A00009F4BECF808180958193F8CF9E012D5075
:1044B000334040911003642F70E0C9010E94C4286A
:1044C000481B463010F4240F311D211582E03807B7
:1044D00010F020E030E02D5E3C4F30931A05209321
:1044E0001905DF91CF911F910895CF93E82F209167
:1044F000190530911A052351334040911003642F60
:1045000070E0C9010E94C428481B842FEE2359F093
:1045100066E00E946A29C82FC150B0F060E080E2D6
:104520000E94E121F9CFA901480F511D41155240C8
:1045300018F080E020E030E0280F311D2D5E3C4F68
:1045400030931A0520931905CF9108951F920F9269
:104550000FB60F9211248F939F93AF93BF938091C7
:104560004305811113C080913E0290913F02A091BA
:104570004002B09141024196A11DB11D80933E02BF
:1045800090933F02A0934002B0934102BF91AF913C
:104590009F918F910F900FBE0F901F901895909143
:1045A0004A01992321F09091410597FD03C0E8EE5F
:1045B000F2E01DC0E82FE695E695E695EE31E0F4D1
:1045C000F0E0E051FD4F877021E030E0A90102C02A
:1045D000440F551F8A95E2F7CA018095928189237D
:1045E00082830895319652E0EE3EF50729F09281DC
:1045F0008913F8CF1282F6CF089590914A0199233A
:10460000D1F09091410597FF16C0E82FE695E69509
:10461000E695EE3140F5F0E0E051FD4F877021E086
:1046200030E0A90102C0440F551F8A95E2F7CA0184
:104630009281892B16C0AAEEB2E0EFEF90E02D91A7
:10464000821789F0EF3F19F4211101C0E92F9F5F14
:104650009630A9F7EF3F39F00E2E000CFF0BE85112
:10466000FD4F828308950895A3E0B0E0EAE3F3E20A
:104670000C94E82820913F05309140052817390710
:10468000A1F09093400580933F05E0913D05F091A6
:104690003E05309751F024E029839B838A83008470
:1046A000F185E02DCE01019609952396E2E00C9468
:1046B0000429A3E0B0E0EFE5F3E20C94E8282091B0
:1046C0003B0530913C0528173907A1F090933C0534
:1046D00080933B05E0913D05F0913E05309751F008
:1046E00023E029839B838A830084F185E02DCE011A
:1046F000019609952396E2E00C94042980913905EE
:10470000882359F0E0913D05F0913E05309729F05E
:104710000190F081E02D0995089580E00895809141
:104720002B0580FD16C081FD16C082FD18C080914A
:104730002A05882391F0883290F428E0829FC001F6
:10474000112468E270E00E947629862F672B29F0F9
:1047500007C082E0089584E0089581E0089588E02C
:10476000089580912B0580FD14C081FD14C082FD49
:1047700016C080912905882381F08E3180F420E5D0
:10478000829FC00111246EE170E00E947629862F7D
:10479000089584E1089588E2089588E0089580E509
:1047A0000895282F35EB2303C001112497FF03C080
:1047B0008058910902C080589F4F892F0895FC01AD
:1047C000680F791F8FEF91E3E617F70771F02191DA
:1047D000822728E030E087FF03C0880F892701C0C7
:1047E000880F21503109B9F7EFCF089590E0FC010F
:1047F000662319F0E45BFE4F02C0E55BFE4F2081AB
:104800002F3F71F0E22FE295EF70F0E080A190E091
:104810002F7002C0959587952A95E2F781700895CB
:1048200080E0089590E0FC01662319F0E45BFE4F00
:1048300002C0E55BFE4F80818F3FA1F0E82FE2953B
:10484000EF70F0E031A1282F2F7081E090E001C0DF
:10485000880F2A95EAF7982F9095932391A392A118
:10486000892B82A3089590912305E92FF0E02091F0
:10487000240530E02150310923703327E217F30774
:10488000A1F0EB5DFA4F8F7720812078822B60FBBF
:1048900087F980839F5F9370909323058091210512
:1048A0008F5F8093210581E0089580E0089580E086
:1048B0009091240520912305291749F1E92FF0E073
:1048C000EB5DFA4F808187FB222720F98F779F5F6E
:1048D000937090932405909122059F5F90932205F9
:1048E000811108C06AE070E0222311F089EA0BC050
:1048F0008AEA09C0813049F46AE070E0222311F0AD
:104900008EE401C08BE40E94A52181E0D1CF0895FF
:104910001F93CF93DF93EC01162FFE018491882320
:1049200029F0612F0E94E1212196F7CFDF91CF91ED
:104930001F9108950E94882481E00E9475220895A5
:10494000AB0124E630E0BC0188E70E946E2621E03E
:10495000892B09F020E0822F089580912005909105
:104960001F05882389F0992369F062E070E087EDE4
:104970009AE00E94A024811103C080911F05089530
:1049800010921F0590911F0581E08927089580915D
:1049900020058823F9F00E949D1DDC01CB01805A7F
:1049A0009541AF4FBF4F80931B0590931C05A0937B
:1049B0001D05B0931E0580911F0581110BC062E09B
:1049C00070E085ED9AE00E94A024882319F081E030
:1049D00080931F0580911F0508950F931F93CF9318
:1049E000DF93C42FD22FFC0185818823B1F040933F
:1049F00038050E94A91D909337058093360580E203
:104A00008C0F883008F068C0C77081E001C0880F43
:104A1000CA95EAF70E949B215FC080913805481330
:104A20003DC080913605909137050E948E1D883CCF
:104A30009105A0F510E21D0FCD17E9F080E28C0F73
:104A4000883040F4C77081E001C0880FCA95EAF74A
:104A50000E949421183078F581E09D2F977001C055
:104A6000880F9A95EAF70E949B21093351F560E57A
:104A700070E089E329C0093319F460E570E002C0F1
:104A80006AE070E0802F0E94A521183028F5D770C9
:104A900081E001C0880FDA95EAF70AC080E28C0F46
:104AA0008830D0F4C77081E001C0880FCA95EAF75A
:104AB0000E94942111C0093351F460E570E089E34C
:104AC00009C06AE070E0802F0E94A521E0CF6AE073
:104AD00070E0802F0E94A521DF91CF911F910F914F
:104AE00008950E94A91D20913205211104C0209132
:104AF0003305222321F090932F0580932E052091DA
:104B00003405211104C020913505222321F0909312
:104B10002D0580932C05E0913D05F0913E053097E1
:104B200049F082E0809330050680F781E02D80E334
:104B300095E009950895EF92FF920F931F93CF93FD
:104B4000DF93182FEB011092BC0084EA8093BC0025
:104B50000E94A91D7C018091BC0087FD0DC0CF3F44
:104B60008FEFD807C1F3C7010E948E1DC817D90760
:104B700090F78EEF9FEF2DC08091B900887F88302D
:104B800041F08091B900887F803119F08FEF9FEF5D
:104B900020C01093BB0084E88093BC000E94A91D34
:104BA0008C018091BC0087FD0BC0CF3F8FEFD807F1
:104BB000C1F3C8010E948E1DC817D90790F7D9CF3D
:104BC0008091B900887F883111F08034F9F680E057
:104BD00090E0CDB7DEB7E6E00C9400291092B90062
:104BE0008CE08093B80008950F931F93CF93DF93C9
:104BF000EB018093BB0084E88093BC000E94A91D58
:104C00008C018091BC0087FD0DC0CF3F8FEFD8078E
:104C1000C1F3C8010E948E1DC817D90790F78EEF07
:104C20009FEF0CC02091B900287F81E090E02832EE
:104C300011F480E090E0919581959109DF91CF91F9
:104C40001F910F910895A0E0B0E0E9E2F6E20C9424
:104C5000DD28782EB62EA72E6A0189010E94A91D93
:104C60004C010431110558F00F3F8FEF180751F038
:104C7000C80164E170E00E94C428EB0105C0C1E0F6
:104C8000D0E002C0C5E0D0E0BE01872D0E949B2588
:104C90007C0197FD05C0CB2DDA2DCC0EDD1E12C098
:104CA0000F3F8FEF180781F3C4010E948E1D081774
:104CB000190750F7F0CFF7FC08C0B80189910E949E
:104CC000F4257C01CC15DD05B1F784E98093BC00A7
:104CD000C701CDB7DEB7EDE00C94F928A0E0B0E055
:104CE000E4E7F6E20C94DD28782EEB016A018901F5
:104CF0000E94A91D4C010431110558F00F3F8FEFA0
:104D0000180759F0C80164E170E00E94C4285B01F3
:104D100007C0AA24A394B12C03C085E0A82EB12C0F
:104D2000B501872D0E949B257C0197FD03C0CC0E09
:104D3000DD1E14C00F3FEFEF1E0791F3C4010E9468
:104D40008E1D0817190760F7F2CFF7FC0AC0FE01A5
:104D50008491B8010E94F4257C012196CC15DD05D3
:104D6000A1F784E98093BC00C701CDB7DEB7EDE0C1
:104D70000C94F928A0E0B0E0E0ECF6E20C94DC281A
:104D8000682E762E5A0169010E94A91D4C0104313A
:104D9000110558F00F3F8FEF180751F0C80164E17B
:104DA00070E00E94C428EB0105C0C1E0D0E002C061
:104DB000C5E0D0E0BE01862D0E949B257C0197FFB7
:104DC0000BC00F3F8FEF1807A9F3C4010E948E1D7F
:104DD0000817190778F713C0B801872D0E94F4252A
:104DE0007C01E501CA0CDB1CCC15DD0541F0F7FCAC
:104DF00006C0B80189910E94F4257C01F5CF84E9B1
:104E00008093BC00C701CDB7DEB7EEE00C94F82864
:104E10008EE14A9B02C08150E1F74A9BFECF089584
:104E20005A9880E28A95F1F75A9A0895FC012AE08F
:104E30002A95F1F728E090E080E031E040E14A95E2
:104E4000F1F7880F4A9B02C08160932700C00000E1
:104E500040E14A95F1F7215089F720E12A95F1F7D1
:104E600029B100C0000030E13A95F1F722FB22277A
:104E700020F992272081920F90830895A1E0B0E05D
:104E8000E4E4F7E20C94E42819828C017C01E60E3C
:104E9000F11C0E151F0551F00E940827CE01019646
:104EA0000E941627F80181938F01F3CF81E0998149
:104EB000911180E02196E6E00C940029529A5A9ACA
:104EC000089552985A9AEA9AE9E6F0E080818F7C38
:104ED00080830895615091E001C0990F6A95EAF7C7
:104EE00020E031E0992361F0492F482319F05A9AC4
:104EF000232701C05A9840E24A95F1F79695F2CFE0
:104F0000222311F05A9A01C05A9880E28A95F1F74B
:104F10005A980895FF920F931F93CF93DF93EC015C
:104F20008C01060F111DC017D10741F0F9900E94A6
:104F3000102768E08F2D0E946A27F5CFCDB7DEB726
:104F4000E5E00C9401291F920F920FB60F921124E5
:104F50000F931F932F933F934F935F936F937F9381
:104F60008F939F93AF93BF93EF93FF93CF93DF9371
:104F70001F92CDB7DEB719820E940827CE01019695
:104F80000E941627082F069506950695902F969550
:104F90009570202F2570920F292F23709695969546
:104FA000920F877089135FC0898181115CC00830BE
:104FB00008F059C080E18A95F1F75A9A529A82E036
:104FC0008A95F1F700C05A9888E0089F8001112463
:104FD000D801AE5EBE4F1696ED91FC9117973097B3
:104FE000A9F06091A9017091AA0114962D913C91AC
:104FF0001597260F371F11968D919C911297680F68
:10500000791F13964C9113978C910995F801EE5ED8
:10501000FE4F6381662351F08091A9019091AA010E
:1050200024813581820F931F0E948A270E941027B6
:1050300080E18A95F1F75A9852985A9A80E18A95B8
:10504000F1F7F801EE5EFE4F6081662351F080912A
:10505000A9019091AA0121813281820F931F0E94A0
:105060003E270E9408270F90DF91CF91FF91EF918B
:10507000BF91AF919F918F917F916F915F914F9170
:105080003F912F911F910F910F900FBE0F901F9086
:1050900018950F931F93CF93DF93883091050CF0F1
:1050A0006DC0EC01F894529A5A9885E08A95F1F710
:1050B00000009C2F969595702C2F2570920F892FAC
:1050C00083709695969523E0CC0FDD1F2A95E1F726
:1050D000980F8E01092B0E94102784E08A95F1F722
:1050E00000C068E0802F0E946A2780E18A95F1F76E
:1050F00052985A9A4A9902C000C0FCCF87E090E0CB
:105100004A9B08C0019721F4529A5A9A789436C063
:1051100000C0F6CFFE01EE5EFE4F6381662381F094
:105120008091A9019091AA0124813581820F931F5A
:105130000E943E27811104C0529A5A9A78941FC047
:105140000E94082780E28A95F1F75A98529A80E1E6
:105150008A95F1F7CE5EDE4F6881662351F080912B
:10516000A9019091AA0129813A81820F931F0E947F
:105170008A270E941027789481E001C080E0DF91A7
:10518000CF911F910F910895AA1BBB1B51E107C03E
:10519000AA1FBB1FA617B70710F0A61BB70B881FC7
:1051A000991F5A95A9F780959095BC01CD01089556
:1051B0002F923F924F925F926F927F928F929F9227
:1051C000AF92BF92CF92DF92EF92FF920F931F9315
:1051D000CF93DF93CDB7DEB7CA1BDB0B0FB6F894C6
:1051E000DEBF0FBECDBF09942A88398848885F8406
:1051F0006E847D848C849B84AA84B984C884DF8077
:10520000EE80FD800C811B81AA81B981CE0FD11D5A
:105210000FB6F894DEBF0FBECDBFED010895FB01C0
:10522000DC0102C005900D9241505040D8F708951E
:10523000F999FECF92BD81BDF89A992780B508955E
:10524000A8E1B0E042E050E00C945C29DC01A40F3E
:10525000B51F4150504048F0CB01840F951F2E914F
:105260000E94372941505040D0F70895262FF999D0
:10527000FECF92BD81BDF89A019700B4021639F0B5
:105280001FBA20BD0FB6F894FA9AF99A0FBE089586
:105290000396272F0E9437290E943629252F0E9426
:1052A0003729242F0C9437290196272F0E9437295C
:1052B0000C943629DC01CB01FC01F999FECF06C024
:1052C000F2BDE1BDF89A319600B40D9241505040C4
:1052D000B8F70895991B79E004C0991F961708F054
:1052E000961B881F7A95C9F78095089597FB072E1E
:1052F00016F4009407D077FD09D00E94C42807FC5B
:1053000005D03EF4909581959F4F089570956195D5
:105310007F4F0895EE0FFF1F0590F491E02D099443
:10532000FB01DC0104C08D910190801921F44150F2
:105330005040C8F7881B990B0895FB01DC0102C09F
:1053400001900D9241505040D8F70895F894FFCF46
:10535000019618EC18E518DE18D7180021007F22F6
:105360000003000000010000000000000005010033
:1053700000000506000000000000000000010B0016
:105380000000000000080C00000000000000000009
:10539000DE11041400000000000001F5F46697C659
:1053A0003435F6F73133323600FF0100010000FFDB
:1053B000FF0000010001FF0000081018181008008D
:1053C000818283E200E900EA00B500B600B700CDB3
:1053D000008301CC008A019201940121022302245E
:1053E000022502260227022A02B300B4006F0070D1
:0C53F000009F01CB019F02A002210200DF
:00000001FF
