:100000000C94F2040C940F050C940F050C9492269A
:100010000C940F050C940F050C940F050C940F0510
:100020000C940F050C940F050C9427100C94481495
:100030000C9466200C940F050C940F050C940F057E
:100040000C940F050C940F050C940F050C940F05E0
:100050000C940F050C9400110C940F050C940F05D3
:100060000C940F050C940F050C940F050C940F05C0
:100070000C940F050C940F050C940F050C940F05B0
:100080000C940F050C940F050C940F050C940F05A0
:100090000C940F050C940F050C940F050C940F0590
:1000A0000C940F050C940F050C940F0529001E00ED
:1000B0001F002000210022002B0014001A0008005D
:1000C00015001700E10004001600070009000A00EF
:1000D00039001D001B00060019000500E300E000C8
:1000E000E2002C002841A80035002700260025004A
:1000F000240023003400130012000C0018001C0020
:100100002A0033000F000E000D000B00E500380040
:1001100037003600100011004C00E400E6002C000F
:100120002842000001001E021F02200221022202BA
:1001300000000000000000000000000001000000BE
:10014000000000000000000001002D00310231001D
:100150002F0030000100010001000100010001003A
:100160003502270226022502240223020000000095
:100170006200610060005F000000540055005E00F6
:100180005D005C000100560057005B005A005900FA
:1001900000000000630067000100010001003A0058
:1001A0003B003C003D003E000100000046006500B1
:1001B000000000000100000000000000000000003E
:1001C00001001D011B0106011901000001000100D1
:1001D0000100000001000100440043004200410012
:1001E00040003F00450000000000520000004B00AE
:1001F000000000004F00510050004E0001000000C0
:100200004D0000004A000000010001000100010053
:1002100001000100000000000000000000000000DC
:10022000007C0000405241521D70000000000000A0
:100230001D70000000000000000000000000000031
:1002400000000000010001000100010001000000A9
:10025000000000000000000000000000000000009E
:10026000000000000000000000000000A900A8003D
:10027000AA00000000000000AB00AE00AC000000CF
:1002800001000100010001000100000000DA02810C
:10029000FFD9F1DB20A4A62EAF00A0C0D30000A19F
:1002A000C8D30000AED580A81F408D1420000708D9
:1002B0007F0807003E5B4F5B3E003E6B4F6B3E008E
:1002C0001C3E7C3E1C00183C7E3C18001C577D5791
:1002D0001C001C5E7F5E1C0000183C180000FFE73D
:1002E000C3E7FF00001824180000FFE7DBE7FF006A
:1002F00030483A060E00262979292600407F050558
:100300000700407F05253F005A3CE73C5A007F3EEE
:100310001C1C0800081C1C3E7F0014227F221400B5
:100320005F5F005F5F0006097F017F0000668995BF
:100330006A0060606060600094A2FFA294000804FC
:100340007E04080010207E20100008082A1C0800E7
:10035000081C2A0808001E10101010000C1E0C1E8D
:100360000C0030383E383000060E3E0E060000000D
:100370000000000000005F00000000070007000010
:10038000147F147F1400242A7F2A12002313086488
:100390006200364956205000000807030000001C88
:1003A000224100000041221C00002A1C7F1C2A0060
:1003B00008083E080800008070300000080808089F
:1003C00008000000606000002010080402003E5198
:1003D00049453E0000427F400000724949494600BD
:1003E0002141494D33001814127F1000274545451F
:1003F00039003C4A49493100412111090700364979
:1004000049493600464949291E00000014000000F1
:100410000040340000000008142241001414141499
:1004200014000041221408000201590906003E414F
:100430005D594E007C1211127C007F4949493600FB
:100440003E41414122007F4141413E007F494949AF
:1004500041007F09090901003E41415173007F08B5
:1004600008087F0000417F4100002040413F01001B
:100470007F08142241007F40404040007F021C0260
:100480007F007F0408107F003E4141413E007F090C
:10049000090906003E4151215E007F0919294600E5
:1004A00026494949320003017F0103003F40404093
:1004B0003F001F2040201F003F4038403F00631492
:1004C000081463000304780403006159494D430094
:1004D000007F4141410002040810200000414141D9
:1004E0007F0004020102040040404040400000033D
:1004F000070800002054547840007F284444380006
:10050000384444442800384444287F003854545424
:10051000180000087E09020018A4A49C78007F0837
:100520000404780000447D4000002040403D00006D
:100530007F102844000000417F4000007C047804C4
:1005400078007C0804047800384444443800FC18DF
:100550002424180018242418FC007C080404080033
:1005600048545454240004043F4424003C40402098
:100570007C001C2040201C003C4030403C004428B3
:10058000102844004C9090907C004464544C4400EB
:1005900000083641000000007700000000413608E6
:1005A00000000201020402003C2623263C00000059
:1005B00000000000404040F0F8F8FF38FFF8F83F36
:1005C000F8F8FF38FFF8F8F0404040000000000065
:1005D0000080C0C0C0800000C0C08000000080C09B
:1005E000C000C0C0000080C0C00000000000C0C04B
:1005F000C0C0C000C0C0000000000000000000003B
:1006000000000000000000000000000000000000EA
:1006100000000000000000000000000000000000DA
:1006200000000000000000000000000000C0F0F822
:10063000FC3E1E06010000007F4141417F007F41DA
:1006400041417F000080C0E07E5B4F5BFEC0000048
:10065000C000DCD7DEDEDED7DC00C000000000001A
:10066000000000000000000000000000000000008A
:1006700000000000494949FFFFFFFFE0DFBFBF0066
:10068000BFBFDFE0FFFFFFFF494949000000000056
:100690001F3F6060E0BF1F007F7F071E381E077F7F
:1006A0007F007F7F0E1F3B716000000000007F7F96
:1006B0000C0C0C007E7E007F7E0303007F7E030314
:1006C0007E7E03037F7E000F3E703C063C703E0F33
:1006D00000327B49493F7E007F7E0303001E3F6955
:1006E000696F2600000000000000000000030F1FDB
:1006F0003F3C7870600000007F4141417F007F41B6
:1007000041417F00307B7F7830202030787F3B0074
:1007100003000F7F0F0F0F7F0F000300000000008A
:1007200000000000000000000000000000000000C9
:1007300000000000010101070F0F7F0F7F0F0F7EE8
:100740000F0F7F0F7F0F0F07010101000000000056
:100750000000000000010100000000000000000097
:100760000000000000000000000000000000000089
:100770000000000000000000000000000000000079
:100780000000000000000000000000000000000069
:100790000000000000000000000000000000000059
:1007A0000000000000000000000000000000000049
:1007B0000000000000000000000000000000000039
:1007C0000000000000000000000000000000000029
:1007D0000000000000000000000000000000000019
:1007E000000000000000000000000000000000AF5A
:1007F00000AE4350534C4B000A0A00556E646566C8
:10080000004C6F77657200526169736500426173D5
:10081000650A004C41594552000A0A004D6F640AAE
:1008200000436C6D6B0051777274000A0A0080817E
:1008300082838485868788898A8B8C8D8E8F909120
:10084000929394A0A1A2A3A4A5A6A7A8A9AAABAC81
:10085000ADAEAFB0B1B2B3B4C0C1C2C3C4C5C6C7F8
:10086000C8C9CACBCCCDCECFD0D1D2D3D40005010C
:100870000902A10185020901A10005091901290840
:10088000150025019508750181020501093009311E
:100890001581257F95027508810609381581257F08
:1008A000950175088106050C0A38021581257F958A
:1008B0000175088106C0C005010980A101850319E1
:1008C000012AB700150126B700950175108100C0F7
:1008D000050C0901A101850419012AA002150126B0
:1008E000A002950175108100C005010906A10185CE
:1008F00006050719E029E71500250195087501810E
:10090000020507190029EF1500250195F0750181F1
:1009100002050819012905950575019102950175D2
:10092000039101C005010906A101050719E029E7A6
:100930001500250195087501810295017508810151
:100940000507190029FF150026FF00950675088187
:100950000005081901290515002501950575019166
:1009600002950175039101C009023B00020100A03C
:10097000FA0904000001030101000921110100012D
:100980002244000705810308000109040100010356
:1009900000000009211101000122B60007058203B1
:1009A000200001120100020000000832FC87020151
:1009B00000010200010C0353006F0066006C00652B
:1009C0000000001A034A006F0073006500660041D2
:1009D00000640061006D00630069006B00000004AA
:1009E0000309040011241FBECFEFDAE0DEBFCDBF44
:1009F00011E0A0E0B1E0E2EAF1E502C005900D925D
:100A0000AC3AB107D9F725E0ACEAB1E001C01D92DC
:100A1000A434B207E1F70E948D200C9490280C9426
:100A20000000482F209140059091070557E02913B9
:100A300002C080E0089530E0529FF001539FF00D16
:100A40001124E85FFA4F8181681306C08081481342
:100A500003C085818111EECF2F5F3F4F2770E7CF15
:100A6000E8EDF0E080818E7F80831092E2001092AA
:100A7000DA001092E100A0EEB0E08C9181608C93DE
:100A800080818F77808319BCA7EDB0E08C918E7F39
:100A90008C9380818F7E80831092F0040895209142
:100AA000E4003091E50095E6A9012091EC00822F49
:100AB000817020FF06C08091E80080FF06C080E0C2
:100AC00008952091E80022FD1AC08091FD0488233A
:100AD00089F0853089F08091EB0085FD0FC0209171
:100AE000E4003091E50042175307F9F29150E1F626
:100AF00084E0089582E0089583E0089581E00895F8
:100B00008091FF0487FF13C08091E80082FF06C038
:100B10008091E8008B778093E80004C08091FD0409
:100B20008111F2CF08958091FD048823D9F380913B
:100B3000E80080FFF8CF8091E8008E77ECCF982F07
:100B40009093E900242F762F50E0891731F07091AF
:100B5000EC002091ED005091F00021FD07C09F5F57
:100B6000973071F78093E90081E008953091EB00B0
:100B70003E7F3093EB003091ED003D7F3093ED00F0
:100B80003091EB0031603093EB007093EC002093D8
:100B9000ED005093F0002091EE0027FDE0CF80E0C3
:100BA0000895B0E0A0E0E7EDF5E00C94CC27C8EDA7
:100BB000D0E088818F7E8883E7EDF0E080818160DE
:100BC000808384E082BF81E08093F00488818E7FFF
:100BD000888302EE10E0F80110821092DA0081EEB4
:100BE000C82ED12CF601108288818F778883888166
:100BF0008068888388818F7D888319BC1092FD046A
:100C00001092FE041092FC041092FB0490EEE92E68
:100C1000F12CF70180818B7F8083888181608883BC
:100C200042E060E080E00E949F05F60180818E7FB7
:100C30008083F801808181608083808188608083E7
:100C4000F70180818E7F8083888180618883CDB722
:100C5000DEB7E8E00C94E827FC018091050590914F
:100C6000060586179707A0F06115710529F4909184
:100C7000E8009E779093E80090E06115710551F4CB
:100C8000911108C08091E80082FF34C080E008958F
:100C9000BC01F2CF8091FD048823C1F18530C1F100
:100CA0008091E80083FD30C08091E80082FDEACFAA
:100CB0008091E80080FFE1CF8091F3002091F20065
:100CC000382F6115710519F02830310558F091E081
:100CD0002830310509F090E02091E8002E7720932C
:100CE000E800CBCF81918093F100615071092F5FB3
:100CF0003F4FE7CF8091FD04882341F0853041F0DC
:100D00008091E80083FFBECF81E0089582E00895DE
:100D100083E008958091F204089587E797E7909320
:100D200001088093000888E19AE00FB6F894A8952E
:100D3000809360000FBE90936000FFCF2FB7F894B0
:100D40006091EC047091ED048091EE049091EF04B9
:100D50002FBF089590914C019923D1F09091E9040F
:100D600097FF16C0E82FE695E695E695EE31E0F49C
:100D7000F0E0EA54FE4F282F277081E090E001C098
:100D8000880F2A95EAF780959281892382830895B6
:100D9000E0EBF1E09191891303C0DF0111971C9200
:100DA00091E0E63BF907B1F7089590914C01992342
:100DB000C1F09091E90497FF14C0E82FE695E695FD
:100DC000E695EE31F8F4F0E0EA54FE4F877021E04A
:100DD00030E001C0220F8A95EAF78281822B82835C
:100DE0000895A0EBB1E0EFEF90E02D91821751F064
:100DF000EF3F19F4211101C0E92F9F5F9630A9F749
:100E0000EF3F09F408950E2E000CFF0BE255FE4F44
:100E1000E6CFA3E0B0E0EFE0F7E00C94D22720911A
:100E2000E7043091E80428173907A1F09093E8040B
:100E30008093E704E091E504F091E604309751F0E7
:100E400024E029839B838A830084F185E02DCE01F1
:100E5000019609952396E2E00C94EE27A3E0B0E01A
:100E6000E4E3F7E00C94D2272091E3043091E4040A
:100E700028173907A1F09093E4048093E304E091EC
:100E8000E504F091E604309751F023E029839B8339
:100E90008A830084F185E02DCE0101960995239681
:100EA000E2E00C94EE278091E104882359F0E09170
:100EB000E504F091E604309729F00190F081E02DEF
:100EC0000995089580E008958091D60480FD16C0AC
:100ED00081FD16C082FD16C08091D5048823A1F043
:100EE000883280F428E0829FC001112468E270E01B
:100EF0000E940528862F672B39F0089582E0089517
:100F000084E0089588E0089581E008958091D604F2
:100F100080FD14C081FD14C082FD16C08091D404F0
:100F2000882381F08E3180F420E5829FC001112456
:100F30006EE170E00E940528862F089584E10895EF
:100F400088E2089588E0089580E50895282F35EB1C
:100F50002303C001112497FF04C080589109892FF1
:100F6000089580589F4FFBCFFC01680F791F8FEFCA
:100F700091E32191822728E030E087FF09C0880FA4
:100F8000892721503109C9F7E617F70791F7089526
:100F9000880FF7CF90E06623A1F0855B9E4FFC01A0
:100FA00020812F3F89F0E22FE295EF70F0E080A1E1
:100FB00090E02F7002C0959587952A95E2F7817091
:100FC0000895865B9E4FEBCF80E0089590E0662306
:100FD000E9F0855B9E4FFC0180818F3FB1F0E82FE7
:100FE000E295EF70F0E041A18F7021E030E0B901AF
:100FF00002C0660F771F8A95E2F7CB01962F909576
:10100000942391A392A1892B82A30895865B9E4F7E
:10101000E2CF9091CE04E92FF0E02091CF0421504F
:10102000330B23703327E217F307A9F0E053FB4F8C
:10103000282F2F7780818078822B60FB87F980832F
:101040009F5F93709093CE048091CC048F5F8093C8
:10105000CC0481E0089580E0089580E0089581E067
:10106000809393020895F894E82FE295EF70F0E0F2
:1010700031A1282F2F7081E090E001C0880F2A95C0
:10108000EAF7982F9095932391A392A1892B82A39D
:10109000789408950F931F938091E104882329F099
:1010A0000E949E061F910F9108950E949E06009136
:1010B0006602109167022091680230916902600F08
:1010C000711F821F931FEECF9091E90492FF10C011
:1010D00041E0282F2471243009F040E031E0282F2E
:1010E0002871283009F030E0431711F02CE08227F6
:1010F00093FF10C041E0282F2471243109F040E013
:1011000031E0282F2871283109F030E0431711F021
:101110002CE082273091EA0430FF10C051E0282FE4
:101120002171213009F050E041E0282F287128304A
:1011300009F040E0541711F029E0822731FF10C078
:1011400041E0282F2171213109F040E031E0282FC2
:101150002871283109F030E0431711F029E0822787
:1011600094FD877E089582389105B9F1B0F48133FA
:10117000910509F47DC048F48932910509F46DC0E8
:101180008A32910509F47BC008958533910509F4ED
:101190005FC08933910509F10895833E9105D9F126
:1011A00038F4803E910529F1823E910579F1089548
:1011B000863E9105D9F1873E910509F43EC0843EF3
:1011C000910541F52091EA0421FF24C08091E904B2
:1011D00084FD19C087EE90E008952091E904237002
:1011E00009F05AC02091EA0423FF14C089E290E07C
:1011F00008952091E90420FD38C03091EA0430FFC1
:1012000009C024FF43C090E080E008952091E904E4
:1012100022FDF7CF08952091E90422FD3AC03091D4
:10122000EA0430FD39C024FFF5CFEDCF2091E90469
:1012300023FFF0CF24FDE7CFCDCF2091E90423FD9C
:101240002EC03091EA0431FFEECF84EE90E0089595
:101250002091E90425FFDECFC9CF2091E90425FDC7
:1012600021C02091EA0423FFD5CF89E390E0D2CFBB
:101270002091E90426FFCECF8AE290E008952091E4
:10128000E90426FFC7CF81E390E0089583EE90E064
:10129000089582EE90E0089580EE90E0089586EE45
:1012A00090E0089585E390E00895972F7A30B8F4A0
:1012B0006630A8F48430B0F470E026E0929F600DB0
:1012C000711D1124FB019CE3899FE00DF11D112488
:1012D000EE0FFF1FE455FF4F85919491089580E034
:1012E00090E0089581E0FCCF1F93CF93DF930E949D
:1012F000B308EC01C11580E5D807F0F5C11580E40D
:10130000D80708F09CC0C03ED10520F5CD3CD105E2
:1013100008F082C0C83AD10578F4C53AD10508F082
:1013200073C0C130D10519F1209709F1C430D1053E
:10133000F0F4D0E0C0E01BC0C33CD105D0F7C85AE0
:10134000D0E0CC0FDD1FC05BDE4F0990D881C02DEF
:10135000D4640DC0C11580E2D80708F0D1C0C11512
:1013600081E0D80708F05AC0C83ED10510F7CE0179
:10137000DF91CF911F910895C03682E5D80718F507
:10138000C03482E5D80708F06BC0C03282E5D807C8
:1013900008F05FC0C11582E5D80708F497C02C2F6C
:1013A0002695269580E2289F900111248C2F83702A
:1013B000C1E0D0E002C0CC0FDD1F8A95E2F7C22B5E
:1013C000D32BDD68D4CFC03A82E5D80760F4C038AB
:1013D00082E5D80708F459C0CF71D0E0DC2FCC27C4
:1013E000C46FD06AC4CFC03C82E5D80708F462C09D
:1013F000C03E82E5D80708F09CCFDC2FCC27CC2755
:10140000DF71C06FD06AB3CFC55AD0E0C35BDE4F87
:10141000C881D0E0D064ABCFD065A9CF8D2F0E941A
:101420006408182FCE0199270E94B308C12FD0E07D
:10143000DC2FCC27CC27DF71C82BD92B98CFCE013E
:1014400099270E94B308CC27DF70C82BD92BD06A0C
:101450008ECFCF71D0E0DC2FCC27C16FD06A87CF81
:101460002C2F26952695277080E2289F9001112425
:101470008C2F8370C1E0D0E002C0CC0FDD1F8A95B5
:10148000E2F7C22BD32BDC6872CF2C2F2695269542
:10149000277080E2289F900111248C2F8370C1E077
:1014A000D0E002C0CC0FDD1F8A95E2F7C22BD32B10
:1014B000DA685DCF8C2F8F710E946408C82FD0E04E
:1014C000DC2FCC27CC27DF71D06251CF8C2F8F71CE
:1014D0000E94640855E0D695C7955A95E1F7CF70FC
:1014E000D0E0DC2FCC27282F30E084FF05C044E07B
:1014F000220F331F4A95E1F7C22BD32BD06937CF88
:101500008D2F8F710E946408182FCE0199270E9499
:10151000B308C12FD0E0DC2FCC27CC27DF71C82B3C
:10152000D92BD2CF809590912A02982390932A02AA
:10153000089580912A0290910102892B90910002D6
:10154000992391F0892B90914C01992371F09091FE
:10155000E90497FF0AC09EE128EB31E040E091509A
:1015600040F4411110920002089596E020EB31E022
:10157000F5CFF90151919F01552389F34F5FEFCFCB
:101580008091400590910705981301C008958F5FE1
:101590008770FACFB0E0A0E0E0EDFAE00C94CB2742
:1015A0007C0100919E0210919F02809176029091A1
:1015B0007702082B192BCFE0D0E0CC24C394D12C98
:1015C000BC2EC6010C2E02C0880F991F0A94E2F7A8
:1015D00080239123892B49F4219790F7B12C8B2DEF
:1015E000CDB7DEB7E9E00C94E727B7018C2F0E9456
:1015F00055090E947409019779F3F1CFCF93DF93D6
:10160000EC010E94CA0ABE010E9455090E94740999
:10161000DF91CF9108959A3078F5863068F5E82FFC
:10162000F0E086E0989FE00DF11D11249E2F977049
:1016300083E0F695E7958A95E1F7EE0FFF1FEE0F31
:10164000FF1FE852FE4F50E040E080E0219130E083
:10165000092E02C0369527950A94E2F721703327A8
:10166000042E01C0220F0A94EAF7822B4F5F5F4FCE
:101670004430510559F7089580E008959A3098F55F
:10168000863088F5E82FF0E086E0989FE00DF11DA8
:1016900011248E2F877041E001C0440F8A95EAF72C
:1016A00083E0F695E7958A95E1F7EE0FFF1FEE0FC1
:1016B000FF1FE852FE4F30E020E070E05191DF0163
:1016C0001197CB01022E02C0969587950A94E2F7F6
:1016D000817081958527842385278C932F5F3F4FC9
:1016E0002430310559F7089590939F0280939E020C
:1016F000089521E030E002C0220F331F8A95E2F7FF
:101700002095309580919E0290919F028223932391
:101710000E94740B08959091FF0180958923809316
:10172000FF01282F277069F4891759F09091EA0476
:1017300092FF07C08695869586950E94790B109238
:10174000FF01089521E030E002C0220F331F8A9587
:10175000E2F780919E0290919F02822B932B0E9430
:10176000740B089590937702809376020895FC019C
:1017700024812223C1F0808191810E94FE0A9295EA
:101780009F70963091F058F4925F9F70923058F4A9
:10179000803F19F030F4883E30F481E008959A5F7C
:1017A000F4CF843FD1F380E00895883EB0F3813FC9
:1017B000D1F7F3CF292F332740E02115310511F060
:1017C000C90148E09C0164E0369527956A95E1F7E8
:1017D0002115310511F04C5FC9019C013695279503
:1017E000369527952115310511F04E5FC901969563
:1017F0008795892B09F04F5F842F0895A6E0B0E00C
:10180000E4E0FCE00C94D12749835A8349815A8152
:101810009923A1F0222391F0CA010E94CA0A182F2D
:10182000682F89819A810E943E0B69817A81812F7C
:101830000E9455092696E3E00C94ED27CA010E9408
:101840000B0B182FF2CF0F931F93CF93DF938B01C6
:10185000EA019091FD04943061F58093E9008FEFE7
:101860009091E800815095FD06C095ED9A95F1F7AD
:1018700000008111F5CF8091E80085FF1AC00E9419
:101880004F05811111C08091E80085FD06C080914F
:10189000E8008E778093E800F2CFF80181918F0104
:1018A0008093F100219779F78091E8008E778093FB
:1018B000E800DF91CF911F910F91089543E050E030
:1018C000BC0182E00E94230C089546E050E0BC0178
:1018D00082E00E94230C089540E250E0BC0182E0C7
:1018E0000E94230C0895CF93DF93EC0148E050E071
:1018F000BC0181E00E94230C88E0FE01A3EFB4E06C
:1019000001900D928A95E1F7DF91CF910895B0E0B3
:10191000A0E0EDE8FCE00C94CA277C015B016A01C1
:101920008091650201E010E08A3010F40AE010E0D6
:10193000C1E0D0E0B501C701F6010995811104C0ED
:1019400021960C171D072CF4CDB7DEB7EAE00C94F6
:10195000E627CC9F9001CD9F300D300D112490E0F3
:1019600080E045E34A95F1F700000196821793075E
:10197000C1F7E0CF80914C01882359F18091E904AF
:1019800087FF27C00E94990A8093B70140E250E088
:1019900062E072E086EB91E00E942828892BC1F07A
:1019A00080E2E6EBF1E0A2E0B2E001900D928A95D0
:1019B000E1F7E091E504F091E604309749F086E024
:1019C0008093B6010480F581E02D86EB91E00995C6
:1019D00008950E94990A8093AE0148E050E062E2C7
:1019E00072E08EEA91E00E942828892B89F388E032
:1019F000EEEAF1E0A2E2B2E001900D928A95E1F701
:101A0000E091E504F091E604309711F30280F38150
:101A1000E02D8EEA91E0DBCF882321F00E94920A2C
:101A20000E94BA0C0895882339F090912A02982BCD
:101A300090932A020E94BA0C08951F93CF93DF93CC
:101A4000162F8A3039F481E00E94C00DDF91CF91CA
:101A50001F9108958D3011F480E0F6CFC0919B0264
:101A6000D0919C0296E0FE01A5E9B2E001900D92B2
:101A70009A95E1F7803E90F186E0FE0111928A95F9
:101A8000E9F7C0919B02D0919C02111133C046E04E
:101A900050E0BE0185E992E00E9428289E01205C6A
:101AA0003240892B91F52A5F3F4F40919D02642F70
:101AB00070E0C9010E94AE27481B463010F4240F85
:101AC000311D211572E0370710F030E020E020547E
:101AD0003D4F30939C0220939B02B8CFF6E08F9F3E
:101AE000B001112462557D4F46E050E0CE010E94C6
:101AF0001F28C7CF9E012A5F3F4FFE012E173F07C9
:101B000031F2808180958193F9CFC90145E09695A6
:101B100087954A95E1F741E050E0BA0102C0660FAF
:101B2000771F8A95E2F7CB016091C2047091C304DC
:101B3000862B972BB9016B5F7F4FE5E07695679514
:101B4000EA95E1F702C0440F551F6A95E2F7842B2E
:101B5000952B9093C3048093C204A5CF1F93CF937A
:101B6000DF93EC01162FFE018491811104C0DF91F7
:101B7000CF911F910895612F0E941D0D2196F3CFE3
:101B8000CF93382FE0919B02F0919C02E05CF240F1
:101B900020919D02622F70E0CF010E94AE27281B8A
:101BA000822F332369F066E00E94F927C82FC150C5
:101BB00010F4CF91089560E080E20E941D0DF7CFF0
:101BC0009F01280F311D2115324018F080E0F0E010
:101BD000E0E08E0F9F2F911D80549D4F90939C02AB
:101BE00080939B02E6CF0E94AE0D81E00E94C00D63
:101BF0000895AB0124E630E0BC0188E70E9462252D
:101C000021E0892B09F020E0822F08958091C804FB
:101C10009091CB04911103C091E089270895882306
:101C200069F062E070E080EF97E00E94F90D8111A9
:101C300003C08091C80408951092C8048091C8041C
:101C4000EBCFCF93C091C8048091CB048823D1F00F
:101C50000E949E06605A75418F4F9F4F6093C40447
:101C60007093C5048093C6049093C704C11108C043
:101C700062E070E08EEE97E00E94F90D811105C0E0
:101C8000C091C8048C2FCF91089581E08093C8043F
:101C9000F7CF9091EA0492FB222720F9281779F0D8
:101CA00080FB92F99093EA046091E9047091EA0450
:101CB00084E090E00E947A2882E00E948B0B0895D5
:101CC000A4E0B0E0E6E6FEE00C94D127409161028A
:101CD0005091620260916302709164022FB7F89490
:101CE0008091EC049091ED04A091EE04B091EF048A
:101CF0002FBF841B950BA60BB70B11E08436910503
:101D0000A105B10570F10E944A086E5F7F4F8F4FA9
:101D10009F4F69837A838B839C838091310190915B
:101D20003201875B9D4F4091300150E045305105B5
:101D300010F044E050E0BE016F5F7F4F0E943528F5
:101D400086E090E00E943827182F882351F00E94E7
:101D50009E06609361027093620280936302909387
:101D60006402812F2496E3E00C94ED270F931F93D8
:101D7000CF93DF93EC0145E050E06FE472E00E9406
:101D80002828009140021091410220914202309196
:101D90004302EFB7F8944091EC045091ED04609148
:101DA000EE047091EF04EFBF401B510B620B730BFD
:101DB000443651056105710510F4892B41F180917C
:101DC000110190911201875B9D4F4091100150E0ED
:101DD0004630510510F045E050E0BE010E94352824
:101DE00082E090E00E943827C82F882351F00E949B
:101DF0009E0660934002709341028093420290934A
:101E000043028C2FDF91CF911F910F910895C1E074
:101E1000F8CF4F925F927F928F929F92AF92BF9234
:101E2000CF92DF92EF92FF920F931F93CF93DF93A6
:101E30000F92CDB7DEB7C62E4A015901482E880F42
:101E40005508C2010E943827782E882309F480C0E3
:101E5000C20133E0880F991F3A95E1F7FC01E05089
:101E6000FF4F438150E04115510511F041E050E032
:101E700080509F4FFC0164817581675B7D4FCE016F
:101E800001960E943528F40140815181628173815D
:101E90002FB7F8948091EC049091ED04A091EE049A
:101EA000B091EF042FBF841B950BA60BB70B8436A4
:101EB0009105A105B10540F4B701C8010E94B4071E
:101EC0009981891709F444C00C2C000CDD08C60167
:101ED0000E943827782E811113C0712C872D0F9006
:101EE000DF91CF911F910F91FF90EF90DF90CF90F6
:101EF000BF90AF909F908F907F905F904F9008958C
:101F0000C60123E0880F991F2A95E1F7FC01E050F4
:101F1000FF4F438150E0E416F50608F4A701805016
:101F20009F4FFC0164817581675B7D4FC5010E94F5
:101F30003528B701C8010E94B40799818913CDCF14
:101F40000E949E06F4016083718382839383C6CFCF
:101F5000A701B801C5010E943528C0CFA8E0B0E0B4
:101F6000E4EBFFE00C94CE2788E0E82EF12C05E5A9
:101F700012E09E012F5F3F4F45E452E064E083E0B2
:101F80000E94090F082F882389F1909154028091B3
:101F90004402981759F110E090915802809157022D
:101FA0008917F1F0E92FF0E0E35BFD4F848587FBB3
:101FB000662760F99F5F9370909358029091560244
:101FC0009F5F909356028F770E940908182F811106
:101FD000E3CF85E090E00E943827012F082302C05C
:101FE0001111F7CF8091540280934402802F2896DC
:101FF000E6E00C94EA27A5E0B0E0E1E0F0E10C9423
:10200000CC276B0185E0E82EF12C0AE412E09E015A
:102010002F5F3F4F4CE352E061E080E00E94090FE8
:10202000882349F095E0FE013196A7E3B2E00190E4
:102030000D929A95E1F795E0E7E3F2E0D601019081
:102040000D929A95E1F72596E8E00C94E8271F9207
:102050000F920FB60F9211242F933F934F935F93DC
:102060006F937F938F939F93AF93BF93EF93FF9360
:102070008091E10082FF09C08091E20082FF05C0EB
:102080008091E1008B7F8093E1008091DA0080FFF6
:1020900024C08091D80080FF20C08091DA008E7F1C
:1020A0008093DA008091D90080FF9DC080E189BDD6
:1020B00082E189BD09B400FEFDCF81E08093FD047B
:1020C0008091F004811109C00E9430050E94D10561
:1020D0008091E20084608093E2008091E10080FFC3
:1020E00017C08091E20080FF13C08091E2008E7FD4
:1020F0008093E2008091E20080618093E200809111
:10210000D80080628093D80019BC85E08093FD04DC
:102110008091E10084FF2BC08091E20084FF27C002
:1021200080E189BD82E189BD89B5982F917080FFDA
:10213000FBCF8091D8008F7D8093D8008091E10003
:102140008F7E8093E1008091E2008F7E8093E20099
:102150008091E20081608093E2008091FE048823F8
:1021600009F447C084E08093FD048091FD048091D0
:10217000E10083FF27C08091E20083FF23C08091AC
:10218000E100877F8093E10082E08093FD0410925C
:10219000FE048091E1008E7F8093E1008091E20057
:1021A0008E7F8093E2008091E20080618093E20064
:1021B00042E060E080E00E949F058091F00088602E
:1021C0008093F000FF91EF91BF91AF919F918F911C
:1021D0007F916F915F914F913F912F910F900FBE23
:1021E0000F901F90189519BC1092FD041092F004E6
:1021F00074CF8091E30087FD93E09093FD04B5CF09
:1022000078941F921FB61F9211248F939F93AF93C0
:10221000BF938091EC049091ED04A091EE04B091F5
:10222000EF040196A11DB11D8093EC049093ED0481
:10223000A093EE04B093EF04BF91AF919F918F9163
:102240001F901FBE1F9018959C014FB7F894809166
:10225000EC049091ED04A091EE04B091EF044FBF17
:10226000821B930B08952FB7F8948091EC04909102
:10227000ED04A091EE04B091EF042FBF08950E94E9
:1022800033119C019091DD048091DE04982B21F0A4
:102290003093DA042093D9049091DF048091E00414
:1022A000982B21F03093D8042093D704E091E504D3
:1022B000F091E604309749F082E08093DB040680D9
:1022C000F781E02D8BED94E00995089510922A0294
:1022D00080914C01882339F18091E90487FF23C064
:1022E000E8EBF1E08EE1DF011D928A95E9F790E0DD
:1022F00080E00E942E0790E080E00E940907109283
:1023000001020E94BA0C86E0EBEDF4E0DF011D92C1
:102310008A95E9F71092D4041092D5041092D6044D
:102320000E943F110895E0EBF1E086E0DCCFAAE2E5
:10233000B0E0EDE9F1E10C94D1278FEF94E020912A
:10234000F100FC012193CF01F5E087309F07B9F739
:1023500080910005833009F470C0B8F4813009F42D
:1023600047C0823009F4B1C08091E80083FF7EC28B
:102370008091FF04909100059A3008F077C2E92F10
:10238000F0E0EE56F74D0C9419288A3009F48CC011
:102390008B3009F46FC0893039F78091FF048132A6
:1023A00019F780910305909104050297E8F6809152
:1023B000E800877F8093E8008091E80082FF38C0C2
:1023C0009091F3008091F200029731F48091F10036
:1023D000813011F0863021F48091F1008093F20475
:1023E0008091E8008B778093E8000E948005BCCF45
:1023F0008091FF04813A09F0B7CF8091E800877F90
:102400008093E8008091030590910405892B61F485
:1024100068E083EF94E070E00E942C068091E80071
:102420008B778093E800A0CF60E090E080E0F3CF6E
:102430008091FD048111C0CF97CF8091FF04813A34
:1024400009F092CF8091030590910405892B09F042
:102450008BCF8091E800877F8093E8008091E8002F
:1024600080FFFCCF80914C018093F1008091E800C7
:102470008E77B9CF8091FF04813209F075CF8091BA
:10248000030590910405892B09F06ECF8091E80037
:10249000877F8093E8000E948005809101058093EA
:1024A0004C010E94661160CF8091FF04813209F0D7
:1024B0005BCF8091E800877F8093E8000E948005D1
:1024C000809102058093F1044FCF8091FF04813AFF
:1024D00009F04ACF8091E800877F8093E8008091DF
:1024E000E80080FFFCCF8091F104BECF803899F0E6
:1024F000823809F0BBC1809103058F70873008F0E6
:10250000B5C18093E9008091EB0085FB882780F9B5
:102510001092E90006C08091FB049091FC04911197
:1025200082609091E800977F9093E8008093F1009B
:102530001092F1008091E8008E7794C1882309F40D
:1025400082C1823009F092C180910105811185C15B
:10255000809103058F702FEF280F263008F086C179
:102560008093E9002091EB0020FF77C1933031F494
:102570008091EB0080628093EB006FC19091EB0043
:1025800090619093EB0021E030E001C0220F8A952A
:10259000EAF72093EA001092EA008091EB0088604D
:1025A000EACF811163C1109101051F778091E3008B
:1025B0008078812B8093E3008091E800877F80936F
:1025C000E8000E9480058091E80080FFFCCF8091A8
:1025D000E30080688093E30082E0111183E0809340
:1025E000FD0444C18058823008F040C1809101054B
:1025F000909102058C3D23E09207A1F583E08A8348
:102600008AE289834FB7F894DE01139620E03EE01A
:1026100051E2E32FF0E050935700E49120FF03C014
:10262000E295EF703F5FEF708E2F90E0EA30C0F0E0
:10263000C7968D939D932F5F243159F74FBF80919B
:10264000E800877F8093E8006AE270E0CE0101969F
:102650000E942C068091E8008B778093E80006C1E9
:10266000C096E7CF4091030550910405292F3327E9
:102670002330310509F444C078F52130310509F4DF
:102680006FC08BE390E0E8E6F9E02230310509F015
:10269000EDC02091E800277F2093E80020910505F8
:1026A000309106058217930708F49C0140E021153C
:1026B000310509F064C0411162C08091E80082FDDB
:1026C000C9CF8091FD04882329F2853019F28091C9
:1026D000E80083FFF2CFBECF21323105A9F12232CB
:1026E000310509F0C3C04115510509F443C041301B
:1026F000510509F0BBC086EB90E0EEE6F8E0C9CFEB
:10270000992781309105C1F0009759F0029709F09F
:10271000ADC0E5EBF9E0E4918E2F90E0E5EBF9E058
:1027200007C0EFEDF9E0E4918E2F90E0EFEDF9E0D6
:10273000009709F49BC0ADCFE3ECF9E0E4918E2F54
:1027400090E0E3ECF9E0F4CF4115510571F0413030
:10275000510509F08BC089E090E0E3E9F9E099CFF9
:1027600082E190E0E3EAF9E094CF89E090E0EAE7E3
:10277000F9E08FCF84E490E0E4E2F9E08ACF809141
:10278000FD04882309F466CF853009F463CF809176
:10279000E80083FD5FCF8091E80082FD8ECF8091BD
:1027A000E80080FF84CF9091F3008091F200211522
:1027B000310519F08830910550F041E0089709F093
:1027C00040E08091E8008E778093E80070CF4491DC
:1027D0004093F1003196215031090196E8CF8038BD
:1027E00009F044C08091E800877F8093E8008091E1
:1027F000FE048093F1009ECE811138C01091010536
:102800001230A0F58091E800877F8093E800109354
:10281000FE040E948005112311F084E005C0809120
:10282000E30087FDFACF81E08093FD0442E061EC94
:1028300081E00E949F0542E261EC82E00E949F05D8
:102840008091FD0413C080910105813079F481E00D
:10285000933009F080E08093FC041092E9008091AD
:10286000E800877F8093E8000E9480058091E8005F
:1028700083FF0AC08091E800877F8093E800809101
:10288000EB0080628093EB00AA96E3E00C94ED27C6
:102890001F920F920FB60F9211242F933F934F93D5
:1028A0005F936F937F938F939F93AF93BF93CF93D8
:1028B000DF93EF93FF93D091E900DF708091EC00FC
:1028C000C82FC17080FDC0E81092E9008091F0002F
:1028D000877F8093F00078940E9497111092E9000E
:1028E0008091F00088608093F000CD2BCF70C09372
:1028F000E900FF91EF91DF91CF91BF91AF919F914F
:102900008F917F916F915F914F913F912F910F9098
:102910000FBE0F901F9018950E9466112FEF84E351
:102920009CE0215080409040E1F700C0000088E129
:102930009AE00FB6F894A895809360000FBE90932C
:102940006000FFCF4091DD049091DF042091E0040E
:10295000662309F469C0942B922B2091DE04922BFC
:1029600031F098E09093D40491E09093D5048D3C9D
:1029700041F40E94860781958093DE040E943F11F6
:1029800008958E3C19F40E948607F6CF8F3C31F4EF
:102990000E94860781958093DD04F0CF803D19F475
:1029A0000E948607F8CF893D29F40E94640780932E
:1029B000DF04E4CF8A3D21F40E9464078195F7CFBC
:1029C0008B3D31F40E94640781958093E004D6CF5B
:1029D0008C3D19F40E946407F8CF9FE2980F98305D
:1029E00070F4815D990B21E030E001C0220F8A95DF
:1029F000EAF78091DC04822B8093DC04BFCF8D3D0D
:102A000031F48091D60481608093D604B7CF8E3D97
:102A100021F48091D6048260F7CF8F3D09F0AECFCC
:102A20008091D6048460F0CF8D3C59F48091DE040F
:102A300087FF0DC01092DE0441110BC01092D40428
:102A400008C08E3C81F48091DE0418169CF3442368
:102A500081F08091DF049091E004892B09F08ECF02
:102A60001092D5048BCF8F3C49F447FFF0CF1092E2
:102A7000DD048091DE048111ECCFE0CF803D19F4BC
:102A80001416ACF3E4CF893D29F4191604F710921B
:102A9000DF04DDCF8A3D19F497FFD9CFF8CF8B3D06
:102AA00029F427FFD4CF1092E004D1CF8C3D19F444
:102AB0001216CCF3CCCF9FE2980F983090F4815D42
:102AC000990B21E030E0B90102C0660F771F8A95AB
:102AD000E2F7CB0180959091DC0489238093DC049C
:102AE000B6CF8D3D31F48091D6048E7F8093D6048D
:102AF000AECF8E3D21F48091D6048D7FF7CF8F3DF0
:102B000009F0A5CF8091D6048B7FF0CF882381F187
:102B10009CEF980F913A28F40E94AA060E94BA0CE2
:102B2000089590E2980F983050F4877091E001C0BA
:102B3000990F8A95EAF7892F0E94920AEFCF9BE5B9
:102B4000980F933028F490E080E00E942E070895BB
:102B500098E5980F9B3128F490E080E00E940907E7
:102B6000089593E3980F933118F460E00E94A21443
:102B70000895CF93C82F8823B1F18CEF8C0F813A41
:102B8000A0F580914C01882301F18091E90487FF31
:102B90001CC0EC2FE695E695E695F0E0EA54FE4F72
:102BA000828190E04C2F477021E030E002C0220F7C
:102BB000331F4A95E2F782239323892B79F08C2FD8
:102BC0000E94AA060E94BA0C09C0E0EBF1E08191D4
:102BD000C817A9F381E0E63BF807C9F78C2F0E94DC
:102BE000D5060E94BA0CCF91089580E28C0F8830F0
:102BF00068F4C77021E030E001C0220FCA95EAF7FF
:102C000080912A02822B80932A02EBCFEBE5EC0F16
:102C1000E33040F4F0E0E35BFE4F808190E00E94FF
:102C20002E07E1CFE8E5EC0FEB3150F4F0E0EE0FCA
:102C3000FF1FE05BFE4F808191810E940907D3CF87
:102C400083E38C0F833178F661E08C2F0E94A2140D
:102C5000CACF1F93CF93DF93182FEB010E94B915B2
:102C60008FE99FE00197F1F700C000002197C1F7BD
:102C7000812F0E948615DF91CF911F9108950F93A8
:102C80001F93CF93DF93C62FD42F022FFC01858192
:102C90008823A9F0609343050E9433119093420565
:102CA00080934105C77081E001C0880FCA95EAF79B
:102CB0000E94130DDF91CF911F910F910895809184
:102CC0004305681334C080914105909142050E94EC
:102CD0002411883C910558F510E21D0FCD17B9F06D
:102CE00080E28C0F883040F4C77081E001C0880F0B
:102CF000CA95EAF70E940C0D183048F481E09D2F28
:102D0000977001C0880F9A95EAF70E94130D6AE048
:102D100070E0802F0E942916183060F6D77081E08D
:102D200001C0880FDA95EAF70E940C0DC3CFC77077
:102D300081E001C0880FCA95EAF7F6CF80E0909154
:102D4000CF042091CE04291739F1E92FF0E0E053A8
:102D5000FB4F808187FB222720F98F779F5F93703D
:102D60009093CF049091CD049F5F9093CD048823DE
:102D700049F0813079F46AE070E08EE4211108C0F6
:102D80008BE406C06AE070E089EA211101C08AEA9A
:102D90000E94291681E0D3CF0895B0E0A0E0E3EDD2
:102DA000F6E10C94CA278C01FC018481882341F14F
:102DB00021E0408151816281738195810E94FE0BE7
:102DC000EC01FC01E851FC47E730F105A8F5E456B9
:102DD000F74D0C94192826E241EE61EEC8010E94DD
:102DE0003F168091FF01877059F0F8018581882393
:102DF00039F08091EA0482FF03C082E00E948B0BCD
:102E0000CDB7DEB7EAE00C94E62727E245EE65EEA3
:102E1000E5CF26E241EE60EEE1CF27E245EE64EE3B
:102E2000DDCF26E241EE62EED9CF27E245EE66EE37
:102E3000D5CF28E241E0EBCFF8018581882309F462
:102E400081C310924305CE019057839708F066C363
:102E500084E090E00E9446289093EA048093E9047D
:102E6000FE01E150F047E232F10520F4ED55F74D57
:102E70000C9419288091E90481608093E90495C03D
:102E80008091EA0488608093EA048FC08091E9040D
:102E90008260F3CF8091E9048460EFCF8091E904F0
:102EA0008860EBCF8091EA048160EDCF8091EA04E5
:102EB0008260E9CF8091E9048061DFCF8091E904ED
:102EC0008062DBCF8091E9048064D7CF0E946611D5
:102ED0008091E9048068D1CF8091E9048C60CDCFE6
:102EE0008091EA048360CFCF8091E9048E7FC5CFC3
:102EF0008091EA04877FC7CF8091E9048D7FBDCFA1
:102F00008091E9048B7FB9CF8091E904877FB5CFA9
:102F10008091EA048E7FB7CF8091EA048D7FB3CF92
:102F20008091E9048F7EA9CF8091E9048F7DA5CFA0
:102F30008091E9048F7BA1CF0E9466118091E90402
:102F40008F779BCF8091E904837F97CF8091EA04AC
:102F50008C7F99CF8091E90482FB992790F921E039
:102F6000922790FB82F990FB83F987CF8091EA0446
:102F7000982F909591708E7F892B90FB81F983CF4C
:102F80009091E904892F8F7B96FF806476CF0E9411
:102F900066119091E904892F97FB87F980586DCFCE
:102FA00061E08EE090E00E945C286091E9047091FD
:102FB000EA0484E090E00E947A280E94661111CF12
:102FC00060E0EFCF9091E904892F8F7E94FF8061BC
:102FD00054CF9091E904892F8E7F90FF81604DCF6F
:102FE0009091EA04892F877F93FF88604CCF85E317
:102FF000A4C285E3B0C20E946611FFEF24E33CE067
:10300000F15020403040E1F700C000000E948D06E2
:103010006FEF7FEF90E080E00E947A280E948C148E
:103020008091EA0482FB882780F991E089270E9439
:10303000490EF8018581C081D181882309F44DC0F2
:10304000CE010E94CA0AF82E682FCE010E943E0BC4
:10305000BE018F2D0E9455090E947409D82FC92FD7
:10306000A82EF801C580B680B2943FE0B3228091CB
:10307000FF01877009F1EC2CCC20F9F0892F807FBB
:10308000803469F080E28D0F8830B0F0892F807E27
:10309000803229F4F1E0FD1778F4BB2069F08091CB
:1030A000EA0482FF09C082E00E948B0B8091FF013D
:1030B0008770EE24E3948111E12CDC2ED2942FE072
:1030C000D2222BE02D1508F46DC0ED2DF0E0EB536E
:1030D000F74D0C94192880E0AACFCE010E940B0B6B
:1030E000F82EB6CF3C2F3F70F32EC07F19F0F2942C
:1030F00090EFF922CC20B9F0FF2069F080E28D0F2B
:10310000883010F0A11009C080912A02F82AF092AC
:103110002A020E94BA0C8D2F43C080910102F82A26
:10312000F0920102F6CF8D2F0E948615FF20D1F17B
:10313000D05ED83010F0A11004C08F2D0E94920AEA
:1031400006C0F09480910102F822F09201020E94E0
:10315000BA0C28C08C2F8F70F82EC07FC03219F0A7
:10316000F29480EFF822AA2059F091E0A91609F410
:1031700079C0CC2009F485C0BB2009F447C0CBCF6F
:103180008091EA0482FD3EC0CC20B1F1FF2039F0ED
:1031900080912A02F82AF0922A020E94BA0C80E05A
:1031A0000E94B9152D2D2850330B2430310510F411
:1031B0000E945307EE20A9F08091FF0180FD11C00D
:1031C000F80115828695869586950E94A20BC80106
:1031D0000E94CD168091FF018695869586950E9466
:1031E000790B20E0F80140815181628173818481F3
:1031F00095810E94FE0B04CE80E00E948615FF2080
:1032000089F29BCFCC20A1F0B11004C08F2D0E9479
:10321000130DC8CFE1E0BE12C5CF809100029F2DF3
:103220009823F91609F4BECFF82AF0920002BACF1B
:10323000B110B8CF8F2D0E940C0D909100028F2DF0
:10324000892329F08F2D8095892380930002809116
:10325000D7019F2D982309F4A5CFF094F822F0927E
:10326000D701A0CFCC2029F0F5E0FB1508F49ACFC8
:10327000CDCF24E02B1508F495CF8F2D0E940C0D97
:1032800091CFBB20D1F339E3A3120DC08FEF97EE9E
:10329000E3E081509040E040E1F700C000008D2F56
:1032A0000E9486157FCF8FE39CE90197F1F7F5CF58
:1032B0008C2F86958695837069F0813009F072CFE6
:1032C0008D2F9C2F9370C11002C080E090E00E946F
:1032D000090768CF8D2F9C2F9370C11002C080E02A
:1032E00090E00E942E075ECF6C2D8D2F0E94A214BD
:1032F00059CF8C2F837009F03FC0C11053CF4D2F91
:10330000429546954770440F440F2D2F2F7030E0A3
:10331000042E02C0220F331F0A94E2F790E080E0EF
:10332000D4FF09C08FE090E002C0880F991F4A9532
:10333000E2F780959095C695C695C370C23099F016
:1033400078F44091760250917702C13039F0822BA7
:10335000932B842395230E94B20B24CF242B352B4F
:10336000822B932BF8CF822B932B209176023091D6
:10337000770282279327EFCF8695CC2011F08C2FF0
:103380008170882309F40ECF4D2F429546954770E2
:10339000440F440F2D2F2F7030E0042E02C0220F57
:1033A000331F0A94E2F790E080E0D4FF09C08FE079
:1033B00090E002C0880F991F4A95E2F7809590959A
:1033C000C695C695C370C23099F078F440919E02BC
:1033D00050919F02C13039F0822B932B8423952387
:1033E0000E94740BDFCE242B352B822B932BF8CF2E
:1033F000822B932B20919E0230919F02822793274C
:10340000EFCFCF70CC2029F08C2F0E94A20B8D2FF4
:10341000FECE8D2F0E940C0D8C2F0E94790BC2CEF8
:103420008D2F92EFA91699F19A1570F0E0EFAE1674
:10343000D1F0F1EFAF1691F0CC2009F45BC0B110E0
:103440006ACE8C2F8F7127C023EFA21639F134EF8B
:10345000A312F2CF8091EA0482FD2EC08C2F8F71CF
:10346000CC20D9F218C0CC2069F084E08B1508F488
:1034700099CECF7181E090E002C0880F991FCA9564
:10348000E2F7B8CF95E09B1508F48CCEF2CF8C2FE5
:103490008F71C110C2CF0E94A20B84CE90E080E059
:1034A000CC2009F49DCFCF7181E090E002C0880F5D
:1034B000991FCA95E2F794CFCC2089F0CF718C2F59
:1034C0000E94A20B8091EA0482FF07C0E8E0CE9F31
:1034D000C001112483608093FF018C2FDCCF81E039
:1034E0000E948B0BF1E0FB1508F05CCE82E00E949D
:1034F0008B0B58CEBB2079F0893341F42FEF37EE98
:1035000083E0215030408040E1F7C7CEEFE3FCE993
:103510003197F1F7C2CE8C2F8F717FCFC631FCE788
:10352000DF07E1F480912A028A7A91E009F490E0C1
:103530009093D60181115BCD89E20E94D5060E944D
:10354000BA0C4FCCC631DC4709F073CD8091D6015F
:1035500081114FCD89E20E94AA06F1CFC3303CE72A
:10356000D30709F455CD50F4C1159CE7D90709F4E8
:1035700042CDC130DC4709F451CD5BCDCB35FCE702
:10358000DF0709F4A8CDCC352CE7D20709F448CDE4
:10359000CA35DC4709F04DCD81E049CDCF93DF93AB
:1035A0008091FE01807F09F04DC08091FD0188234C
:1035B00009F448C0E091400550910705C091F90118
:1035C000D091F8016091FA017091FB0147E05E171C
:1035D000C9F18E2F90E0E49FF0011124E85FFA4FCB
:1035E0002481222391F1489FF001499FF00D11247D
:1035F000DF01A85FBA4F11962C9111972C1325C0AB
:103600002C912D1322C015962C91159721111DC0B8
:1036100012962D913C91261B370B283C3105A8F4BE
:103620008091FE018F7080618093FE01E25FFA4F0E
:1036300080818F708061808388EF91E00E94CD1639
:103640000E94C00ADF91CF910895FC013196E77086
:10365000BECFA4E1B0E0EFE2FBE10C94C8278C01FF
:1036600086E0F801DE011F9601900D928A95E1F740
:10367000F8018481E58098EFA92E91E0B92E909110
:10368000FC01911128C0882319F1EE20F1F0C80146
:103690000E94B70BF82E8823C1F087E0F801D5010E
:1036A00001900D928A95E1F78091FC01813031F40F
:1036B0008091F8019091F9010E94FE0A0E94CE1AB1
:1036C0008F2D6496ECE00C94E427C8010E94CD167F
:1036D000FF24F394F5CFD080C18082809380F09056
:1036E000FD012091FA013091FB01A401421B530B13
:1036F000FF2009F4D9C0483C510508F092C0882346
:10370000F9F29091F9018091FE01282F207F09F0B4
:1037100056C0C91214C09091F801D91210C0E1101E
:1037200048C08F7080618093FE0188EF91E00E9415
:10373000CD168091FE01F8018683F12CC1CFE110F6
:1037400038C06C2D8D2D0E9411056C2D8D2D0E9481
:103750001105E82E8111F1CFDF86C88A8F859889FF
:103760000E94FE0A292F22952F70243058F49F7052
:10377000223088F0992399F0F8019681907F79F4AE
:10378000FE2C9ECF2A5F2F70223068F0C8010E9465
:10379000CD16EF2CF5CF992311F0882389F3805EA5
:1037A000883070F3F3CF803F58F3815F833070F738
:1037B000E7CF8091FE0181608093FE01BECFC912E8
:1037C00007C09091F801D91203C0EE2009F48DC012
:1037D000C8010E94B70B882309F477CFEE2009F4C3
:1037E00074CF8091FE01803288F02091F8013091F1
:1037F000F901398728879B868A869091FC019C87EE
:103800001D868E87CE0108960E94CD1687E0F801AE
:10381000A8EFB1E001900D928A95E1F70E94CE1ACF
:1038200057CF9091FE01292F207F51F488EF91E02E
:103830000E94CD1687E0F50111928A95E9F77DCFB8
:10384000882309F43DCF8091F9018C1110C080913B
:10385000F801D8120CC0E1100AC09683C8010E947A
:10386000CD1687E0F50111928A95E9F729CFC801B5
:103870000E94B70B882309F428CFEE2009F425CF46
:103880008091FE01803210F22091F8013091F9010F
:103890003A8329839C828B829091FC019D831E82B6
:1038A0008F83CE010196B0CF483C5105D0F68823D6
:1038B00009F40ECFFE2CEE2009F407CF8091F90118
:1038C0008C1120C08091F801D8121CC08091FE019B
:1038D00080FD0FC0982F907F61F08683903F31F07C
:1038E000982F907F905F8F70892B8683C8010E94EC
:1038F000CD1687E0F801A8EFB1E001900D928A950E
:10390000E1F7DECEC8010E94B70B81117FCF809115
:10391000FE0181608093FE01C8010E94CD16D0CEC9
:10392000ABE1B0E0E6E9FCE10C94D0274E8B5F8B75
:10393000688F798F8A8F9B8F192F911110920102B6
:103940001D8A86E0FE017696DE011F9601900D929B
:103950008A95E1F70A8D002341F021E04F855889CF
:1039600069897A89C8010E94FE0B0B8B1C8B87E04A
:10397000FE013F96DE01189601900D928A95E1F7BF
:10398000CE0108960E94291B81112AC087E0FE0102
:103990003896DE01119601900D928A95E1F78C859B
:1039A0008823F1F02091070530E0C9010196877066
:1039B00099274091400548171906E9F097E0929F32
:1039C000D001939FB00D1124A85FBA4FFE0131962C
:1039D00001900D929A95E1F7809307050E94C00A25
:1039E00017E08091400590910705891312C06B96EE
:1039F000E4E00C94EC270E946611109207051092E7
:103A0000400587E0E8EFF1E0DF011D928A95E9F7D4
:103A1000E7CF819FC0011124885F9A4F0E94291B24
:103A2000882329F38091400590E0019687709927BB
:103A300080934005D6CF2F923F925F926F927F92F4
:103A40008F929F92AF92BF92CF92DF92EF92FF92AE
:103A50000F931F93CF93DF938091CB04882309F4B6
:103A600087C08091C9049091CA040E942411C29712
:103A700008F45FC00E9433119093CA048093C90474
:103A800080EC92E090939C0280939B028091E104F1
:103A900060E0882309F486C08BE298E00E94AE0DB6
:103AA00080919E0290919F020E94DA0B882341F040
:103AB000813041F160E08CE198E00E94AE0D05C0DC
:103AC00060E086E298E00E94F30D60E089E198E012
:103AD0000E94AE0D60E083E198E00E94F30D8091BA
:103AE0009E0290919F020E94DA0B823009F452C02C
:103AF00068F0833009F452C060E08BEF97E00E94D9
:103B0000F30D09C060E081E298E0DDCF60E08DE078
:103B100098E00E94AE0D60E088EF97E00E94AE0D45
:103B20000E94530781FB662760F982EF97E00E94AD
:103B3000F30D8091C2049091C304892BC1F580914B
:103B4000C8048823A9F00E949E060091C404109125
:103B5000C5042091C6043091C704601B710B820B11
:103B6000930B6F3F7F4F8F4F9F4710F40E94060EBD
:103B7000DF91CF911F910F91FF90EF90DF90CF9049
:103B8000BF90AF909F908F907F906F905F903F908D
:103B90002F90089560E087E098E0BBCF60E081E07F
:103BA00098E0B7CF8EE298E00E94AE0DC2CF809130
:103BB000CB04882321F28091C1048111C0CF0E94DF
:103BC000210E2091C2043091C3042115310509F45E
:103BD000B6CF80E041E050E0082F10E01A01082E37
:103BE00002C0220C331C0A94E2F7B1016223732352
:103BF000672B11F48F5FF0CF9091C00490FF95C0B8
:103C0000880F880F880F8093450110924801895FC3
:103C10008093460183E08093490124E630E047E049
:103C200050E063E471E088E70E941E25892B09F0CB
:103C300086CFA80125E0440F551F2A95E1F7809112
:103C4000C00480FF84C0E0EAF2E080E2DF011D9260
:103C50008A95E9F7A7EAB1E003EA11E08BEAC82EFA
:103C600081E0D82E97E0592E772473948D91E80146
:103C700029918E01240F352F311D20543D4FE82FFF
:103C8000F0E0E056FD4F90E080E0652C681A872C4C
:103C9000082E01C0880C0A94EAF77901A12CE701EB
:103CA000B9907E01B820662D6A196770962E062E8F
:103CB000000C770BDB2D01C0DD0F9A94EAF77195AC
:103CC000619571096770772701C0B6946A95EAF724
:103CD000BD2A6081962E9B289082A39468E0A6124C
:103CE000DECF019631968830910579F6CA16DB064B
:103CF00009F0BCCF04E610E020E230E040EA52E0F8
:103D000060E488E70E94A825892B09F018CFE1011B
:103D1000C095D0958091C2049091C304C823D92343
:103D2000D093C304C093C2040ACF8295880F8076D3
:103D300080934501980136952795369527952093D0
:103D40004801815E809346012093490166CF40542B
:103D50005D4F04E610E020E230E0D2CFAFE0B0E00B
:103D6000E4EBFEE10C94C7278E010F5F1F4F8AE042
:103D7000F80111928A95E9F788E8C82E81E0D82EDB
:103D8000F12CE12CAA24A394B12C23E9822E21E06A
:103D9000922EF60181916F018F3F09F442C0F89491
:103DA000E82FE295EF70F0E021A18F70A50102C02D
:103DB000440F551F8A95E2F7CA01922F982B91A3C1
:103DC00092A18095892382A3789400C0EDE8F1E068
:103DD000712C31E021912F3F09F49EC0A22FA295B2
:103DE000AF70B0E090968C9190E02F7002C09595E6
:103DF00087952A95E2F780FD8FC0832F782A330FAD
:103E00008E169F0639F7F601319780818F3F11F0AA
:103E10000E94330850EA5A95F1F7F801EE0DFF1DA4
:103E200070828FEFE81AF80A95E0E916F10409F0BC
:103E3000B0CF4AE050E0B8018AE692E00E9428281C
:103E4000009741F02AE0F801AAE6B2E001900D9255
:103E50002A95E1F70091750210E008581D4F892B53
:103E600009F45CC081E080932F020E94331190938B
:103E70002E0280932D02D12CC090E104CC2009F4B5
:103E8000A4C07E01EBE0EE0EF11C85E0F70111927B
:103E90008A95E9F7809165028A3008F063C04BEF9C
:103EA0005FE0B701C8010E94870C882309F47CC039
:103EB00046EB5EE0B701C8010E94870C882309F435
:103EC00073C04EEA5FE0B701C8010E94870C8823E7
:103ED00009F46AC040E65EE0B701C8010E94870CA1
:103EE000882309F461C0109265028091740290E009
:103EF00045E050E0B70188589D4F0E94282821E0F6
:103F000020933602892B09F042C0C12C8C2D8D29BB
:103F10002F96EDE00C94E32780E070CFD0902F0235
:103F2000DD2009F4A8CF80912D0290912E020E94ED
:103F30002411059708F49FCF45E050E06AE672E04F
:103F4000C8010E942828892B59F085E0EAE6F2E0B2
:103F5000D80101900D928A95E1F710922F028CCF33
:103F6000D12CFBCF80913002909131020E9424111C
:103F7000843F914008F093CF80913602882329F244
:103F800085E0F70111928A95E9F710923602A09127
:103F90007402B0E0A858BD4F85E0FE013B96019049
:103FA0000D928A95E1F7B2CF809165028F3F31F093
:103FB0008F5F809365028A3008F497CF0E94331197
:103FC0009093310280933002D7CFE0907402F12CAD
:103FD000A70148585D4F7A0185E0F801AAE4B2E0F4
:103FE00001900D928A95E1F765E070E08AE492E035
:103FF0000E94B4078093490285E0EFE4F2E0D70124
:1040000001900D928A95E1F788E0ECECF4E0A5E5EB
:10401000B2E001900D928A95E1F768E070E085E5E5
:1040200092E00E94B4078093540280905D029090C9
:104030005E02A0905F02B090600280913202909187
:104040003302A0913402B091350288169906AA066F
:10405000BB0609F45BCF8092320290923302A092A9
:104060003402B09235020E949E06861A970AA80A68
:10407000B90A8092660290926702A0926802B0929A
:10408000690244CFA6E0B0E0E8E4F0E20C94D02767
:104090000E9433118C0180912B0290912C02801789
:1040A000910781F019821A820E943311682F498189
:1040B0005A81792F80E090E00E94901C10932C028E
:1040C00000932B022696E4E00C94EC271F921FB677
:1040D0001F9211248F939F93AF93BF938091EB0412
:1040E000811113C08091EC049091ED04A091EE0435
:1040F000B091EF044196A11DB11D8093EC04909303
:10410000ED04A093EE04B093EF04BF91AF919F91A3
:104110008F911F901FBE1F901895CDB7DEB72E97B9
:104120000FB6F894DEBF0FBECDBF85B7806885BFE0
:1041300085B7806885BF84B7877F84BF0FB6F89442
:10414000A895809160008861809360001092600063
:104150000FBE80E890E00FB6F894809361009093D2
:1041600061000FBE8DE298E09093AD018093AC01A9
:104170000E9430050E94D1058091E2008460809306
:10418000E20078948091FD048823A1F01091E90069
:104190001F709091EC00892F817090FD80E8182BA2
:1041A0001092E9008091E80083FD0E9497111F7032
:1041B0001093E90082E084BD93E095BD9AEF97BD2E
:1041C00080936E001092660210926702109268024D
:1041D000109269028091D80080618093D8002AE112
:1041E0002A95F1F700C08091D900182F117080FD39
:1041F00004C00E9430051092FD041093E104109356
:10420000E2041093380111110E944C26ECECF4E00A
:1042100088E0DF011D928A95E9F78091380191E0ED
:10422000892780938F028091380190939202809128
:10423000380180913801811106C084EF80934A01D2
:1042400085EF80934B0160E080E00E94E60761E02B
:1042500080E00E94E607EFE8F1E03197F1F700C057
:10426000000010E080919202181708F4CAC08091F3
:1042700038018091380195E0811190E090937502AA
:1042800085E0891B8093740208E811E0D8018D91C4
:104290008D018F3F11F00E943308B1E00D381B07EC
:1042A000A9F70DE811E0F80181918F018F3F11F01E
:1042B0000E943308F1E003391F07A9F78AE0E8E715
:1042C000F2E0DF01282F1D922A95E9F7EAE6F2E0F5
:1042D000DF011D928A95E9F790E080E00E94462870
:1042E000863E9E4F09F466C066EE7EEF90E080E069
:1042F0000E947A2860E082E090E00E945C2881E0E1
:1043000090E0909377028093760261E083E090E002
:104310000E945C2860E074E184E090E00E947A28CA
:1043200060E086E090E00E945C2860E087E090E03A
:104330000E945C2840E050E0BA0188E090E00E94D2
:104340006E2860E084E290E00E945C2860E087E1F3
:1043500090E00E945C2860E08CE090E00E945C2885
:1043600060E08DE090E00E945C2819821A821B8236
:104370001C821D821E821F82188648E050E068E180
:1043800070E0CE0101960E944C2840E050E0BA0156
:1043900080E290E00E946E2840E050E0BA018FE099
:1043A00090E00E946E2840E050E0BA0183E190E086
:1043B0000E946E2882E090E00E943E288093820254
:1043C00084E090E00E9446289093EA048093E904F8
:1043D0000E94AE1EEFEFF6E721E0E150F0402040F2
:1043E000E1F700C000000E94AE1E8091780280FFBD
:1043F0001AC06FEF7FEF90E080E00E947A280E9461
:104400008D0660E0812F0E94CA07082F61E0812F8E
:104410000E94CA07E12FF0E0E057FD4F880F802B84
:1044200080831F5F1FCF83E090E00E943E2890E0D2
:104430000E94B20B8091E104882309F4BAC083E0A2
:104440008093C00480FDB7C080E880939D020E94E5
:10445000EA246BE070E083EA92E00E94F90D882381
:10446000E9F18091C00465E070E081FDA6C08EE9AD
:1044700092E00E94F90D882389F16DE070E08CE8EC
:1044800092E00E94F90D882349F10E949E06605A2D
:1044900075418F4F9F4F6093C4047093C504809300
:1044A000C6049093C704E0ECF2E080E092E0DF0104
:1044B0009C011D9221503040E1F7F0939C02E09363
:1044C0009B028FEF9FEF9093C3048093C20481E01F
:1044D0008093CB048093C8041092C1048091E104BE
:1044E000811102C00E944F2689E391E09093E60477
:1044F0008093E50498E1C92ED12C22E8A22E22E077
:10450000B22E32E0832E912C8091FD0400E112E165
:10451000853009F48BC00E94AE1E03E812E088E7E4
:10452000E82E82E0F82E2DE832E0D701F8019191D3
:104530008D912E173F0709F483C09817C1F320907F
:10454000E104712CD7016D907D01F80131908F014C
:10455000361431F1512C442443943624832D842184
:10456000B9F02220A9F059867A860E9433119C87DF
:104570008B87F1E0FD8791E0862D842109F490E09E
:104580009E8749855A856B857C858D850E94901C08
:104590005394440C26E05212E1CFF8013197608227
:1045A00073943AE07312CECF0E944A087724739432
:1045B0004CC080E045CF80E248CF89E992E059CFF6
:1045C0008091FD04843021F10E94060E1092EB04CC
:1045D00030E40FB6F894A895C09260000FBE3093F7
:1045E000600083B7817F846083BF83B7816083BFAE
:1045F0007894889583B78E7F83BF0FB6F894A8957B
:1046000080916000886180936000109260000FBE0E
:104610008091FC04882351F00E94AE1EE8E7F2E08E
:104620008191811161C1AE16BF06D1F78091FD0461
:10463000853009F4C5CF0E9466110E9453076BCFE5
:1046400098137DCF0E944220712CE090E104EE206F
:1046500019F00E949E16E82E80919302882351F053
:10466000109293028091CE048093CF048091CC0469
:104670008093CD04F12C80919202F81688F08091FD
:10468000E104882319F00E949E16E82AEE2009F41E
:1046900043C00E944A080E941B1D0E94210E40C078
:1046A00061E08F2D0E94CA07182F60E08F2D0E94B5
:1046B000CA07E12FEE0F8E2B0F2D10E0D801A05767
:1046C000BD4FEC919E2F9370891721F1EE0FEE0FE5
:1046D000E82BEC9380918F028F0DEF70F0E0ED5698
:1046E000FE4F03571D4F6080D8019C91690E6C925C
:1046F000B1E060E0B61524F0EFEF6E161CF461E057
:104700000E940908862D660C990BB4010E940528A9
:10471000D8018C93F394AFCF0E941B1D7110BDCFB5
:1047200086E0EBEDF4E0DE01119601900D928A95A2
:10473000E1F77090DC040091DD04F090DE04E0907D
:10474000DF041091E0041092DD041092DE04109258
:10475000DF041092E004802F8F2909F445C0809176
:10476000D9049091DA040E9424119C019091D40400
:10477000992309F4D8C025313105B0F19F3F19F0D4
:104780009F5F9093D404002359F00E9486079FEF07
:1047900010160CF491E0899F802D11248093DD0484
:1047A000FF2059F00E94860791E01F140CF09FEF44
:1047B000899F802D11248093DE048091DD0488235D
:1047C00099F06090DE04662079F00E94A6078823A5
:1047D00009F482C08093DD04862D0E94A6078823F9
:1047E00009F47CC08093DE04812F8E2909F443C034
:1047F0008091D7049091D8040E9424119C0190913B
:10480000D504992309F48AC021353105A0F19F3FD1
:1048100019F09F5F9093D504EE2059F00E94640731
:104820009FEF1E140CF491E0899F802D112480933A
:10483000DF04112359F00E94640791E011160CF077
:104840009FEF899F802D11248093E0048091DF04E5
:10485000882389F0E090E004EE2069F00E94A6072A
:104860008823F1F18093DF048E2D0E94A607882310
:10487000C9F18093E0048091DC04871116C0809117
:10488000DD04882311F0081310C02091DE042223D8
:1048900011F0F2120AC09091E004992311F019135B
:1048A00004C03091DF043323A9F10E943F1186E058
:1048B000FE013196ABEDB4E001900D928A95E1F7DF
:1048C0000E94530790919402891709F41DCE80939A
:1048D00094020E949E0618CE81E07CCF81E082CFB8
:1048E00081E0C0CF81E0C5CF09BD19BD09B400FE8C
:1048F000FDCF8091D8008F7D8093D8008091E0001B
:1049000082608093E0008091E00081FDFCCF0E94F6
:1049100066118CCE822B892B51F2C7CF2B303105FB
:1049200008F077CFA8CF2B30310508F029CF5CCF26
:10493000EF92FF920F931F93CF93DF93182FEB010A
:104940001092BC0084EA8093BC000E9433117C0169
:104950008091BC0087FF27C08091B900887F883094
:1049600029F08091B900887F803189F51093BB00D0
:1049700084E88093BC000E9433118C018091BC00BC
:1049800087FF1EC02091B900287F90E080E0283189
:1049900091F081E090E0203411F490E080E0919576
:1049A0008195910908C0C7010E942411C817D90731
:1049B00078F68EEF9FEFCDB7DEB7E6E00C94EA27EE
:1049C000C8010E942411C817D907C0F6F2CF8FEF93
:1049D0009FEFF1CF1092B9008CE08093B80008955A
:1049E0000F931F93CF93DF93EB018093BB0084E879
:1049F0008093BC000E9433118C018091BC0087FF22
:104A000011C02091B900287F81E090E0283211F494
:104A100090E080E0919581959109DF91CF911F9170
:104A20000F910895CF3FDC0741F3C8010E94241184
:104A3000C817D90710F78EEF9FEFEFCFB0E0A0E0D7
:104A4000E4E2F5E20C94C727782E5B016A01890144
:104A50000E9433114C01C1E0D0E00431110558F03F
:104A6000C5E0D0E00F3F100731F0C80164E170E00D
:104A70000E94AE27EB01BE01872D0E9498247C0185
:104A800097FF09C00F3F1007B1F3C4010E94241122
:104A90000817190780F7E501CA0CDB1CCC15DD05EA
:104AA00011F0F7FE09C084E98093BC00C701CDB7BF
:104AB000DEB7EDE00C94E327B80189910E94F02461
:104AC0007C01ECCFB0E0A0E0E8E6F5E20C94C7276B
:104AD000782E5B016A0189010E9433114C01C1E00B
:104AE000D0E00431110558F0C5E0D0E00F3F1007C9
:104AF00031F0C80164E170E00E94AE27EB01BE0115
:104B0000872D0E9498247C0197FF09C00F3F100752
:104B1000B1F3C4010E9424110817190780F7E501B9
:104B2000CA0CDB1CCC15DD0511F0F7FE09C084E9C9
:104B30008093BC00C701CDB7DEB7EDE00C94E3274E
:104B4000FE018491B8010E94F0247C012196EACFF5
:104B5000B0E0A0E0EEEAF5E20C94C627682E762ECF
:104B60005A0169010E9433114C01C1E0D0E00431C7
:104B7000110558F0C5E0D0E00F3F100731F0C80133
:104B800064E170E00E94AE27EB01BE01862D0E9419
:104B900098247C0197FF1DC00F3F1007B1F3C4019B
:104BA0000E9424110817190780F784E98093BC003C
:104BB000C701CDB7DEB7EEE00C94E227B8018991CA
:104BC0000E94F0247C01CC16DD0679F3F7FEF6CFC7
:104BD000ECCFB801872D0E94F0247C01E501CA0CBE
:104BE000DB1CF1CF8EE14A9B02C08150E1F74A9B6A
:104BF000FECF08955A9880E28A95F1F75A9A08955F
:104C0000FC013BE03A95F1F798E020E080E031E0EC
:104C100040E14A95F1F7880F4A9B02C08160232743
:104C200042E04A95F1F7000040E14A95F1F79150D2
:104C300079F790E19A95F1F799B132E03A95F1F769
:104C4000000040E14A95F1F792FB992790F99227ED
:104C50002081920F90830895A1E0B0E0E2E3F6E2B4
:104C60000C94CE2719828C017C01E60EF11C0E15E6
:104C70001F0541F481E09981911180E02196E6E0E1
:104C80000C94EA270E94F225CE0101960E9400268C
:104C9000F80181938F01EBCF529A5A9A0895529856
:104CA0005A9AEA9AE9E6F0E080818F7C8083089541
:104CB0006150770B91E001C0990F6A95EAF720E007
:104CC00031E0911108C0222391F05A9A80E28A952E
:104CD000F1F75A980895492F482339F05A9A232713
:104CE00040E24A95F1F79695ECCF5A98F9CF5A9849
:104CF000EDCFFF920F931F93CF93DF93EC018C01C5
:104D0000060F111DC017D10729F4CDB7DEB7E5E0B6
:104D10000C94EB27F9900E94FA2568E08F2D0E94F1
:104D20005826F0CF1F920F920FB60F9211240F93B7
:104D30001F932F933F934F935F936F937F938F9323
:104D40009F93AF93BF93EF93FF93CF93DF930F9214
:104D5000CDB7DEB719820E94F225CE0101960E94DE
:104D60000026082F069506950695282F2295257072
:104D7000902F9570290F922F937026952695920F5C
:104D8000982797708981982B09F05CC0083008F04B
:104D900059C080E18A95F1F75A9A529A82E08A9531
:104DA000F1F700C05A9888E0089F80011124D801CB
:104DB000A050BF4F1696ED91FC9117973097A9F030
:104DC000609186017091870114962D913C91159701
:104DD000260F371F11968D919C911297680F791F9E
:104DE00013964C9113978C910995F801E050FF4F61
:104DF0006381662351F0209186013091870184817F
:104E00009581820F931F0E9479260E94FA2580E1E6
:104E10008A95F1F75A9852985A9A80E18A95F1F753
:104E2000F801E050FF4F6081662351F02091860128
:104E30003091870181819281820F931F0E942C26DD
:104E40000E94F2250F90DF91CF91FF91EF91BF91DA
:104E5000AF919F918F917F916F915F914F913F9112
:104E60002F911F910F910F900FBE0F901F901895CB
:104E70000F931F93CF93DF93EC0108970CF04CC076
:104E8000F894529A5A9885E08A95F1F700009C2F81
:104E9000969595708C2F8570980F892F83709695B5
:104EA000969523E0CC0FDD1F2A95E1F7980F8E0130
:104EB000092B0E94FA2500C068E0802F0E94582626
:104EC00080E18A95F1F752985A9A4A9B1EC087E072
:104ED00090E04A991CC0FE01E050FF4F63816623B9
:104EE000F9F0209186013091870184819581820FAC
:104EF000931F0E942C26811113C0529A5A9A7894BB
:104F0000DF91CF911F910F91089500C0DECF0197DF
:104F100029F4529A5A9A789480E0F2CF00C0D9CFFF
:104F20000E94F22580E28A95F1F75A98529A80E120
:104F30008A95F1F7C050DF4F6881662351F02091C8
:104F400086013091870189819A81820F931F0E9487
:104F500079260E94FA25789481E0D2CFAA1BBB1B48
:104F600051E107C0AA1FBB1FA617B70710F0A61B69
:104F7000B70B881F991F5A95A9F780959095BC018A
:104F8000CD0108952F923F924F925F926F927F9240
:104F90008F929F92AF92BF92CF92DF92EF92FF9249
:104FA0000F931F93CF93DF93CDB7DEB7CA1BDB0BF5
:104FB0000FB6F894DEBF0FBECDBF09942A8839889A
:104FC00048885F846E847D848C849B84AA84B984A1
:104FD000C884DF80EE80FD800C811B81AA81B981AD
:104FE000CE0FD11D0FB6F894DEBF0FBECDBFED01C1
:104FF0000895991B79E004C0991F961708F0961B35
:10500000881F7A95C9F78095089597FB072E16F4A7
:10501000009407D077FD09D00E94AE2707FC05D089
:105020003EF4909581959F4F0895709561957F4FBF
:105030000895EE0FFF1F0590F491E02D0994FB01F8
:10504000DC0102C005900D9241505040D8F7089500
:10505000FB01DC0104C08D910190801921F44150C5
:105060005040C8F7881B990B0895FB01DC0102C072
:1050700001900D9241505040D8F70895F999FECF14
:1050800092BD81BDF89A992780B50895A8E1B0E056
:1050900042E050E00C948228DC01A40FB51F41507F
:1050A000504048F0CB01840F951F2E910E945D283F
:1050B00041505040D0F70895262FF999FECF92BD68
:1050C00081BDF89A019700B4021639F01FBA20BDCD
:1050D0000FB6F894FA9AF99A0FBE08950396272FFF
:1050E0000E945D280E945C28252F0E945D28242FA5
:1050F0000C945D280196272F0E945D280C945C2853
:10510000DC01CB01FC01F999FECF06C0F2BDE1BD87
:10511000F89A319600B40D9241505040B8F7089576
:10512000F894FFCF76129E1236149E123614D112C6
:10513000F2123614EF13FC1309170D17EB160517AF
:105140001117151719177417E9177C1746174A17FF
:1051500080174E17841790175A17E2175E17941787
:1051600062179817C01766179C17C7176C17A217F6
:10517000AA175217881756178C177017A617B61745
:10518000D017E01740177817F01772187218AA187E
:10519000AA1858197419D218D2187919011A101AA4
:0251A000101AE3
:1051A20000000001000000000000000501000000F6
:1051B2000506000000000000000000010B000000D6
:1051C200000000080C0000000000000000002F0892
:1051D2000414000000000000018A06730C6C0C65C8
:1051E2000C5E0C0021007F220003F5F40181828312
:1051F200E200E900EA00B500B600B700CD00830185
:10520200CC008A0192019401210223022402250288
:10521200260227022A02B300B4006F0070009F0129
:10522200CB019F02A00249026697C63435F6F731D8
:1052320033323600FF0100010000FFFF00000100D1
:0C52420001FF0000081018181008000000
:00000001FF
